:020000041000EA
:10000000002008205D0100101B0100101D010010E0
:100010001101001011010010110100101101001058
:100020001901001019010010190100101F01001022
:10003000110100101901001021010010230100100E
:100040001101001011010010110100101101001028
:100050001101001011010010110100101101001018
:100060001101001011010010110100101101001008
:1000700011010010110100101101001011010010F8
:1000800011010010110100101101001011010010E8
:1000900011010010110100101101001011010010D8
:1000A00011010010110100101101001011010010C8
:1000B00011010010110100101101001011010010B8
:1000C00011010010110100101101001011010010A8
:1000D0001101001011010010110100101101001098
:1000E0001101001011010010110100101101001088
:1000F0001101001011010010110100101101001078
:100100001101001011010010110100101101001067
:10011000EFF30580103800BE00BE00BE00BE00BE7A
:1001200000BE00BEF2EB8871ACCE0410CCCE041041
:10013000A001001090A31AE7D3DEFFFF42012110B7
:10014000FF01000048ED0400793512AB4FF00000CC
:100150001E49086006C881F3088810474FF05040D8
:10016000006810B14FF00000F2E70DA40ECC00299A
:1001700002D000F012F8F9E71549164A002000E015
:1001800001C19142FCD11449884714498847144958
:10019000884700BEFDE701C901C29A42FBD3704700
:1001A000CCCE041010010020C01E00207CEC0410F6
:1001B0000000082080000820FCEC0410001008203B
:1001C00084110820000000007047000008ED00E0E6
:1001D000C01E0020C40A0620ED9D03107D03001000
:1001E000E59D0310F8B500BF064B0749C91A8910F1
:1001F00048BF0131491003D0044B0BB101481847E7
:10020000704700BFC01E0020C01E0020000000007C
:1002100008B5054B1BB105490548AFF30080BDE8A3
:100220000840FFF7E1BF00BF00000000D80906202A
:10023000007B041070B584B00C4603AB02AA01A980
:10024000064637F0FFFC18B954B9204604B070BD1B
:100250000546DDE90212019837F032FC2C46F4E73E
:100260003146014836F0E0FA007B04102DE9F043F6
:100270000446ADF51B7D2146314802AD39F0E0FF63
:1002800001222146284641F03BF9002844D12C693F
:100290002C4821466F6939F0D3FF2B4B9C4277F1F4
:1002A00000032CD204F57F41FF310E0C360406F515
:1002B0008139484644F0ECFEDFF8A880C8F8040015
:1002C000A8B34946214801AE39F0BAFF2246334669
:1002D0002846D8F80410C8F8684041F0B3FC01463D
:1002E00028460D4641F0F6FE019A1DB9BD4208BFF1
:1002F000A24216D02946164839F0A2FF07E04FF473
:10030000C001144839F09CFF284641F0E3FE00206C
:100310000DF51B7DBDE8F08301460F4839F090FFD5
:10032000F5E711460D4839F08BFF0120F0E7314623
:100330000B4839F085FF284641F0CCFEE7E700BFC7
:10034000347B0410687B041001006000CC7B041037
:10035000F47B0410807B0410487B04101C7C041088
:10036000A07B0410744600200020704700207047D6
:100370000020704701207047704700BF2DE9F0430F
:1003800089B037F095FD132037F070FD642047F0F9
:100390004BFB37F0EBF90021A248FFF74BFF002899
:1003A00000F0158139F088FE08264FF4FA7037F016
:1003B000DDF9013EF9D19C4839F0C2FE9B4839F085
:1003C000BFFE9B4839F0BCFE984839F0B9FE0520C5
:1003D00037F070FB0146974B9748A3FB0131890C1E
:1003E00039F02EFF192036F0FBF94FF001051923E3
:1003F00045EC443045EC4030904839F0A1FE4FF0D8
:1004000080435B688E4813F0010F0CBF2F24132428
:10041000214639F015FF204647F016FB44F0A4FEB4
:10042000884839F08DFE884839F08AFE01228749D4
:10043000874840F0BDFF78B10146864839F000FF9B
:10044000192445EC4040642037F090F946EC4040D8
:10045000642037F08BF9F3E77F4839F071FE7F486D
:1004600039F06EFE012044F001FB7D4842F0B4FB00
:10047000EF214FF4807042F0B5FB3146202042F06E
:10048000BBFB012044F0ECFAEF224FF48071754879
:1004900039F0D6FE31460122734836F0D3FD734859
:1004A00039F04EFE72483CF0A1FA6F4847F0F8FA76
:1004B000704E714839F044FE01AC704839F040FE8E
:1004C0000FCE0FC496E807006D4D84E8070001AC1D
:1004D00003E054F8045F002D7ED02846FFF7C6FEE7
:1004E0000028F6D0674839F02BFE44F6206344F22A
:1004F0001B12654E6421B3614FF4AB63F26140F2AD
:10050000034273604FF400734FF4EF384FF001096A
:10051000F160B26045F222614FF480725B4D5C4C39
:100520002B614F4F23686A6208FB0373C5E90033F0
:10053000584BF164AB60584BC6F83C90EB6086F8C2
:10054000619086F864901FF0DFFB00F0C1F8002195
:10055000084629F099FF1DF049FFF06C29F050FD85
:100560004E4B4F4883F8039039F0EAFD002024F009
:10057000CBFB0646002845D04A4839F0E1FD4A4900
:100580004A4839F05DFE4A4B4A48596D890A39F0AC
:1005900057FE19234FF0000242EC4030464839F034
:1005A000CFFD4FF00009454E04F094F933781BB1AC
:1005B00024F0E0FE86F800902368B3FA83F35B0929
:1005C0002360236808FB0373C5E90033ECE70121CE
:1005D0003B48FFF72FFEE5E63A4839F0B1FD3A48CF
:1005E00039F0AEFD4FF00106192446EC40404FF4BF
:1005F000FA7037F0BBF845EC40404FF4FA7037F032
:10060000B5F8F1E7314839F09BFD192449EC404039
:10061000C82037F0ABF846EC4040C82037F0A6F8C9
:10062000F3E700BF90C40500607D0410447C041013
:10063000707C041083DE1B43907C0410A87C0410A3
:10064000C07C0410D07C0410EC7C0410C48704101F
:10065000A8350020007D0410207D0410307D04109A
:10066000D8520020487D0410400A0620647D041002
:1006700001000820F88904107C7D0410907D04108E
:10068000347C04106C7E0410E00E0420783E0020C0
:100690005C050620580305205814042094400020CF
:1006A0008C7E0410BC7D04109C460020D87D041074
:1006B00074460020E87D0410FC7D0410BB0A06206F
:1006C00060D80300187E0410347E0410A07D04104E
:1006D00008B54FF4803044F0DBFC034BD8600038A1
:1006E00018BF012008BD00BF24400020F8B5012339
:1006F000524F534E4FF480720021F868337046F029
:1007000015FB2022FD68FF21A81846F00FFB2022D0
:10071000FF2105F1600046F009FB2022FF2105F1D1
:10072000A00046F003FB2022FF2105F1E00046F087
:10073000FDFA4FF48074281929464FF4807204F5AD
:10074000807446F077FDB4F5803FFD68F3D14FF03B
:10075000000C3C4C3C4B05F570403D6100F57C6263
:1007600003F14001C4F800C01C681033146053F852
:100770000C4C103242F80C4C53F8084C42F8084C20
:1007800053F8044C8B4242F8044CEDD12E4B2F4AC7
:100790001C681033146053F80C4C103242F80C4CA7
:1007A00053F8084C42F8084C53F8044C8B4242F87A
:1007B000044CEDD1B0F8FE3F32782B443B6001236E
:1007C000234C02203A75802200217B6223714FF472
:1007D0006F4385F8F120387104F10B00C7E9071168
:1007E000C4E933112160398587F82A10F980A4F80B
:1007F000D81084F8DA10C4F8D410BB6046F096FA2A
:10080000786B144A4300144902F58075BB63C0B28B
:1008100012F8013F13FB00F3AA4201F8013FF7D1A0
:10082000C0230025012084F87730A57129F0A6FAAD
:100830002846BDE8F84027F09FBF00BF24400020B5
:10084000E00E04203F3C0020C4C10410C33C002043
:10085000383C0020C3C00410D7510020164B174964
:100860005A6A0978013210B5044619755A62C9B935
:100870000122134BA0071A7107D545F087FB8307A8
:1008800016D4104B1B69185D10BD45F07FFB810726
:10089000F7D542070CD504F00304012C14BFBB208C
:1008A000AA2010BD084B00F003042344D87910BDE2
:1008B000C0F3C70010BD00BF24400020E00E04209C
:1008C0004C3D002074460020383C0020094A0A4B69
:1008D000126910B41154DA6800F0030C624482F813
:1008E000F410064C5A6A217801325DF8044B1975F0
:1008F0005A6270477446002024400020E00E042015
:10090000F0B51406074683B01FD40B060C4615D568
:1009100011F0400601F020052CD0002D0CBF06215F
:10092000072129F0CFFD70B144F040557F2301220B
:1009300021463846009527F047FE04E0052129F0BE
:10094000C1FD002837D103B0F0BD012115461E4678
:1009500029F0B8FD0028F6D0082473090093384622
:1009600006F01F03C5F3021205F00F01019428F0F1
:100970001FF8E8E77DB1092129F0A4FD0028E2D0A5
:1009800044F0804533464FF0FF322146384600950B
:1009900027F01AFED7E7082129F094FD0028D2D0CD
:1009A00044F040562B464FF0FF3221463846009621
:1009B00027F00AFEC7E70022384611462346009278
:1009C00027F002FE2146384603B0BDE8F04028F08B
:1009D0008FB800BF2DE9F041904B0446DB6893F8D7
:1009E000F2507F2D00F28280DFE815F08D00EB00E1
:1009F000DF00D3008000C700BB00AF008000800094
:100A0000800080000501DA018000A1008D00EB006C
:100A1000DF00D3008000C700BB00AF008000800073
:100A200080008000FC0180008000A1008D00EB00B0
:100A3000DF00D3008000C700BB00AF008000800053
:100A400080008000E801F4008000A1008D00EB0030
:100A5000DF00D3008000C700BB00AF008000800033
:100A600080008000A3028A028000A1008D00EB00BC
:100A7000DF00D3008000C700BB00AF008000800013
:100A8000800080001C02BA018000A1008D00EB00F4
:100A9000DF00D3008000C700BB00AF0080008000F3
:100AA00080008000740180008000A1008D00EB00B8
:100AB000DF00D3008000C700BB00AF0080008000D3
:100AC000800080002C0180008000A1008D00EB00E0
:100AD000DF00D3008000C700BB00AF0080008000B3
:100AE000800080002001CB018000A10000204C4943
:100AF0004C4A0B781678107033430B702B0640F17C
:100B00008884BDE8F081484E41B2731993F90C20F6
:100B1000280927F0F9FD00204149424A0B7817784F
:100B200010703B430B702E44F472BDE8F08141B26B
:100B3000280927F015FF002039493A4A0B78167822
:100B4000107033430B70384EEDE7374E7219D37A7D
:100B50008342E0D00146937A2809527AFFF7D0FE0B
:100B6000D9E7314E7119CB7A8342D4D003468A7AC1
:100B70002809097BFFF7C4FECDE72B4E7219D37A03
:100B80008342C8D0137B517B02462809FFF7B8FE89
:100B9000C1E7254E28097319997A01EB0421C1F3A5
:100BA0000D01C90028F010F8B5E71F4E2809731988
:100BB000197B04EB0121C1F30D01C90028F004F8F1
:100BC000A9E7194E42B2731993F90A10280927F0C0
:100BD0009BFDA0E7144E96F83830834201D027F0F1
:100BE00093FE00200E490F4A0B78157810702B43A6
:100BF0000B702D2597E70C4EF37D834204D096F9B8
:100C0000271040B227F09EFD00200549054A0B78C9
:100C1000157810702B430B700C2584E724400020BE
:100C2000B30A0620B20A0620383C0020002177488B
:100C3000774A047813787C252343764E0C4603705C
:100C4000117070E7030600F01F0800F13F82C0F347
:100C5000401080F0010000F0010027F029FE6E4AEC
:100C60006E4B6F4E52F82810C4F380121A73F3695A
:100C7000C6F80015012B00F00783D6F8B80001284C
:100C800000F01283D6F85431012B00F00783D6F818
:100C9000F031012B00F01F83D6F88C32012B00F0CD
:100CA0001483D6F82833012B00F00983D6F8C43317
:100CB000012B00F0FE82D6F86034012B00F0E882B0
:100CC000544E00205249514A0B78087011780B435A
:100CD000137028E710F0010040F0E1814B4A4D4EBF
:100CE0001378DF0700F1BA82A00700F1C281474AFA
:100CF0001378990700F19B82630700F1A481434AAE
:100D000013785F0700F17C82200700F186813F4A5B
:100D10001378190700F15D82E30600F168813B4A10
:100D20001378DF0600F13E82A00600F14A81374ABF
:100D30001378990600F11F82650600F12C81334A71
:100D40001378580600F10082220640F1068196F9D8
:100D50000630B279002BC0F2E58186F86740D0E614
:100D60002C4E96F85830834201D027F005FD002024
:100D70002649274A0B78157810702B430B704D25A8
:100D8000D1E600F00F0027F06FFD2049204A0B78D4
:100D900010787D25034300201E4E0B701070C2E6B4
:100DA00040B227F059FD1949194A0B7810780D25E2
:100DB00003430020174E0B701070B4E6154E96F8E2
:100DC0003730834204D096F9471040B227F0CCFC6C
:100DD00000200E490E4A0B78157810702B430B70CB
:100DE0002C25A0E60B4E96F82730834204D096F9C6
:100DF000170061B227F0A6FC00200449044A0B78D2
:100E0000157810702B430B701C258CE6B30A062056
:100E1000B20A0620383C002004C20410600A0620F2
:100E2000540F042000283FF46CAEC3070BD5BA4A18
:100E300092F8673013F0010000F0A082B74A1378EF
:100E400043F001031370A7070AD5B34B93F867204B
:100E5000960740F1A582B14A137843F0020313705C
:100E600065070AD5AC4B93F86720500740F1AB8279
:100E7000AA4A137843F00403137021070AD5A64B3E
:100E800093F86720120740F1B182A44A137843F027
:100E900008031370E3060AD59F4B93F86720D70623
:100EA00040F146829D4A137843F010031370A60662
:100EB0000AD5994B93F86720950640F14C82974AE2
:100EC000137843F02003137060060AD5924B93F811
:100ED0006720510640F11982904A137843F040038D
:100EE000137022067FF50DAE8B4B93F96720002A15
:100EF00080F2F781894A137863F07F03137000E66C
:100F0000854E96F84830834200F0FB8001274FF071
:100F1000000804EA0701003918BF0121404608F122
:100F2000010827F077FE7F00B8F1080FFFB2F0D17B
:100F3000C7E6794E96F84730834204D096F93700D9
:100F400061B227F011FC00207549744A0B781578BE
:100F500010702B430B703C25E5E5714B93F9002095
:100F60001978002ABFF6F9AEB07901F07F0196F842
:100F70006720197096F8873060F07F0002F07F02DA
:100F800003F07F03B071072086F8672086F887306A
:100F900029F0C8FAE1E6B37959067FF5D5AE604984
:100FA00023F040030A78B37196F8573022F04002DC
:100FB00023F0400306200A7086F8573027F0ACFC77
:100FC000C2E6B3799F067FF5B7AE554923F02003FB
:100FD0000A78B37196F8573022F0200223F02003EC
:100FE00005200A7086F8573027F096FCA4E6B379FE
:100FF000DD067FF599AE4A4923F010030A78B371F4
:1010000096F8573022F0100223F0100304200A70E3
:1010100086F8573027F080FC86E6B3791A077FF50B
:101020007BAE3F4923F008030A78B37196F8573036
:1010300022F0080223F0080303200A7086F85730D4
:1010400027F06AFC68E6B3795D077FF55DAE344949
:1010500023F004030A78B37196F8573022F00402A3
:1010600023F0040302200A7086F8573027F054FC5E
:101070004AE6B3799A077FF53FAE294923F0020388
:101080000A78B37196F8573022F0020223F0020377
:1010900001200A7086F8573027F03EFC2CE61E4EE1
:1010A000B379DD077FF520AE1D4923F001030A78EF
:1010B000B37196F8573022F0010223F001030020AB
:1010C0000A7086F8573027F027FC0DE60027124EED
:1010D000384648F0600886F8778086F8877086F88A
:1010E000677086F8577027F0E3FB384628F046FE15
:1010F0000B490A4A0B7810786C2503430B70177064
:1011000011E500200649054A0B78157810702B432D
:101110000B703D2507E500BF383C0020B20A0620D1
:10112000B30A0620BC4896F85730017802F07F02D7
:10113000B27101F07F0203F07F030270072086F88E
:10114000573027F0E9FB08E623F04003B17913702C
:1011500096F8672096F8873041F0400122F040026F
:1011600023F040030620B17186F8672086F88730A7
:1011700029F0D8F9E8E523F02003B179137096F847
:10118000672096F8873041F0200122F0200223F0FA
:1011900020030520B17186F8672086F8873029F092
:1011A000C1F9C9E523F01003B179137096F86720EF
:1011B00096F8873041F0100122F0100223F010035E
:1011C0000420B17186F8672086F8873029F0AAF9E3
:1011D000AAE523F00803B179137096F8672096F812
:1011E000873041F0080122F0080223F008030320B1
:1011F000B17186F8672086F8873029F093F98BE57E
:1012000023F00403B179137096F8672096F88730BD
:1012100041F0040122F0040223F004030220B17122
:1012200086F8672086F8873029F07CF96CE523F092
:101230000203B179137096F8672096F8873041F071
:10124000020122F0020223F002030120B17186F8AC
:10125000672086F8873029F065F94DE523F0010312
:10126000137096F86730B27923F0010386F867307F
:1012700096F8873042F0010223F00103B27186F83C
:10128000873029F04FF92FE5002027F079FCF4E4AE
:101290000720D6F8001527F073FC11E50220D6F8D8
:1012A000001527F06DFCF2E4D6F8001527F068FC75
:1012B000E8E40620D6F8001527F062FCFBE40520E0
:1012C000D6F8001527F05CFCF0E40420D6F80015F1
:1012D00027F056FCE5E40320D6F8001527F050FC73
:1012E000DAE44D4C9979207893F8872000F07F005C
:1012F00061F07F0102F07F022070997183F88720EE
:101300000720BDE8F04129F00DB9434899790278EA
:1013100041F0400122F04002027093F8872006203D
:1013200022F04002997183F8872029F0FBF8D8E574
:1013300039489979027841F0100122F010020270C8
:1013400093F88720042022F01002997183F88720F7
:1013500029F0E8F8ABE530489979027841F02001AE
:1013600022F02002027093F88720052022F020024C
:10137000997183F8872029F0D5F8A5E526490B78DF
:1013800023F001030B70917992F8873041F001014D
:1013900023F00103917182F8873029F0C3F852E5F8
:1013A0001D489979027841F0020122F00202027090
:1013B00093F88720012022F00202997183F8872098
:1013C00029F0B0F84CE514489979027841F004010D
:1013D00022F00402027093F88720022022F0040217
:1013E000997183F8872029F09DF846E50A48997994
:1013F000027841F0080122F00802027093F8872079
:10140000032022F00802997183F8872029F08AF8D6
:1014100040E5024EFFF787BBB30A0620383C0020A8
:10142000474B70B5DD68C307464C00F0010103D59A
:1014300094F8D830002B5AD010F0020203D094F860
:10144000D930002B47D010F0040302D094F8DA60B2
:10145000AEB3C3F38003C60684F8DA3048BF002376
:1014600084F8D81048BFA5F8F430810648BF00239F
:10147000C2F3400248BFA5F8F63084F8D92002062E
:10148000237940D4C3B100212F4B05F57F42C032F0
:1014900003F140062171D3F800E0D3F804C09C6842
:1014A000D9681033B342C2F800E0C2F804C09460B7
:1014B000D16002F11002EED185F8F10070BDA4F800
:1014C000D06085F8FF6095F8FC600EB94FF4807627
:1014D000A4F8D660BDE7A4F8CE3085F8FE3095F8C4
:1014E000FB300BB94FF48073A4F8D430ABE7A4F809
:1014F000CC3085F8FD3095F8FA300BB94FF4807395
:10150000A4F8D23098E7002BD6D1104B05F57F42D6
:10151000C03203F140011E681033166053F80C6CA2
:10152000103242F80C6C53F8086C42F8086C53F80F
:10153000046C8B4242F8046CEDD101232371BBE7AC
:1015400024400020383C0020C33C0020C4C10410CB
:10155000324BDB6893F8F23003F07F03A3F108020B
:10156000712A3AD8DFE802F04B3D39393939393937
:1015700039393939393939394B3D393939393939C5
:1015800039393939393939394B3D393939393939B5
:1015900039393939393939394B3D393939393939A5
:1015A00039393939393939394B3D39393939393995
:1015B00039393939393939394B3D39393939393985
:1015C00039393939393939394B3D39393939393975
:1015D00039393939393939394B3D114A1344D87AB7
:1015E00070479C210F4A1B0901FB0323986998B19E
:1015F000B3F9602093F961001043C0B270479C2199
:10160000084A1B0901FB0323586B7F2803DC20EAEF
:10161000E070C0B270477F20704700BF24400020B8
:10162000383C0020540F04200346A8B180EAE07241
:10163000A2EBE07281EAE170A0EBE17092B280B2BD
:1016400082420ADC1202B2FBF0F20A48D2B293EAFA
:10165000010F30F912000AD470470002B0FBF2F01B
:10166000044AC0B293EA010F32F91000F4D54042A7
:1016700000B27047148A0410624B634AB3F9003019
:10168000F0B55B425B0261486149B2F900601BB290
:10169000002BB0F900E0B1F90040A6F195066FDB30
:1016A00001275C4ADB1103F1800532F9155004FB78
:1016B00005FC32F8132012FB07F212B206FB12CC23
:1016C00004FB02F2544B05FB0622B3F900304FEA4B
:1016D000EC3C5B425B021BB2002B4FEAE23676DB4E
:1016E00001274C4ADB1103F1800432F914400EFB50
:1016F00004F532F8132012FB07F212B202FB065374
:1017000055420EFB05F54FEAE33E444B04FB0655FC
:10171000B3F90030424A5B425B021CB2002C4FEA34
:10172000E535136043DB01273A4AE31103F18004F6
:1017300032F9144004FB0EF632F8133013FB07F3B2
:101740001BB203FB1C6203FB0EF304FB0C3395245A
:10175000344ED213B6F90060DB1306FB02F206FB2F
:1017600003F304FB02F204FB03F3953505EBC50517
:101770002D0192FBF5F293FBF5F302800B80F0BD97
:1017800013F5004F0CD05B42224A43F3C81303F118
:10179000800532F915504FF0FF3704FB05FC88E750
:1017A000C4EB444C00221D464FEACC3C8AE714F5BA
:1017B000004F1CD05B42174A43F3C81303F1800467
:1017C00032F914404FF0FF3704FB0EF6B4E713F57F
:1017D000004F11D05B420F4A43F3C81303F180045A
:1017E00032F914404FF0FF370EFB04F581E7CEEBE2
:1017F0004E420023D203A8E7CEEB4E451C46EB0336
:10180000002580E7A20A0620AA0A0620A40A0620CC
:10181000A80A062064900410A60A06209E0A062044
:10182000780A0620A00A06205A4B5B48B3F900301C
:101830005A495B425B025A4A1BB2002B2DE9F04128
:10184000B0F900E0B2F90040B1F9007063DB0126A5
:10185000544ADB1103F1800532F9155007FB05FCF2
:1018600032F8133013FB06F636B204FB16C207FB40
:1018700006F64D4B4FEAE23CB3F900305B425B02A7
:101880001BB2002B6DDB4FF00108464ADB1103F160
:10189000800732F8177017FB0EF732F8133005FB8C
:1018A000046613FB08F3F6131BB203FB06773F4BEA
:1018B0003F4AB3F90030FF135B425B021DB2002DBB
:1018C00013603EDB0126EB11364A03F1800432F946
:1018D000145005FB07F432F8133013FB06F31BB268
:1018E00003FB1C4407FB03F305FB0C33314AE413F1
:1018F000B2F90020DB1302FB04F402FB03F3002C1B
:10190000B8BFFF34002BB8BFFF3324121B12048072
:101910000B80BDE8F08113F5004F0CD05B42214AEB
:1019200043F3C81303F1800532F915504FF0FF3629
:1019300007FB05FC94E7C7EB474200261D46D20390
:1019400097E715F5004F1CD05B42164A43F3C813C6
:1019500003F1800432F914504FF0FF3605FB07F411
:10196000B9E713F5004F11D05B420E4A43F3C81399
:1019700003F1800732F817704FF0FF3817FB0EF7AE
:101980008BE7C7EB47440023E403ADE7CEEB4E47BC
:10199000FF038CE7A20A0620A40A0620A80A062054
:1019A000AA0A062064900410A60A06209E0A0620B1
:1019B000780A0620A00A062030B4214A214C224D84
:1019C0002188224B12881B88521A298812B25B1A6E
:1019D0001BB282EAE27183EAE370A1EBE271A0EB51
:1019E000E37089B280B2814222802B8010D91B0221
:1019F00093FBF1F32B80164B002A01F101011980B2
:101A0000B4BF4FF47F434FF48073238030BC7047E2
:101A1000002B10D00E4B4FEA022292FBF0F200F1A5
:101A200001001880B4BF4FF47F434FF480732280CD
:101A30002B8030BC7047064A30BC1380704700BF13
:101A4000A20A0620A40A0620A80A0620A60A062042
:101A50009E0A062047F6FF722DE9F04F854D82461B
:101A6000686989B000F58053B3F88F9FB3F9921F6E
:101A70009145B3F8806F28BF91460029B3F8924F83
:101A8000ACBF0A461446002E40F0A780B3465F461E
:101A900005920FFA89F6CDF810B093F8894F93F8B4
:101AA0008C8F04F0F80408F0F80804EBAA0212FB8B
:101AB00008F20021521045F039F96B69049803F5DA
:101AC0008053B3F9831FB3F9862F09FB01F30BFB96
:101AD00002FBC3EB013300FB11390599CBEB023359
:101AE00001FB123BB8F1000F74D00AEB840307939B
:101AF0000AF102030693002C6CD04FF0000ECA4688
:101B00008023D9467146B3465246CDF804A0CC4650
:101B10000020BA46CDE9029EB4EB123F4FEA1236DE
:101B200037D9B8EB1C3F4FEA1C3732D904FB0766A4
:101B30006F6907EB560E9EF800E6F60748BF4FEABE
:101B40001E1E1EF0010F02D07E5C1E437E541EF04E
:101B5000020F07D0D5F814904F1C19F807601E43E8
:101B600009F807601EF0040F07D06F6901F1100932
:101B700017F809601E4307F809601EF0080F08D027
:101B8000D5F814E001F111071EF807601E430EF8A6
:101B900007605B0800F1010004BF8023203184420C
:101BA0005A44D444B8D1069ADDF80CE01144CA0670
:101BB00058BF079A5746DDE901A958BF891A049A08
:101BC0000EF1010E9244059A48BF21F01001F04534
:101BD000914499D109B0BDE8F08F802E30D0B6F590
:101BE000807F1FFA89F937D0B6F5C07F1CD0224A12
:101BF000C6F3080632F81610204A32F8162001FB08
:101C000009F602FB09F912FB04F201FB04F4C2F32A
:101C1000C03249F3C03746F3C036049244F3C032B1
:101C2000B146BB46059238E7C9F100090FFA89F7BA
:101C30004FF00009BB464E460492CDF814902CE7B5
:101C4000CB460FFA89F74FF00009644222B24E46A4
:101C50000492CDF8149020E74FF0000BC9F1000971
:101C600064420FFA89F922B24E465F460592CDF8DA
:101C700010B012E774460020648C041064900410C5
:101C80002DE9F04FDFF8648287B0D8F8143003F5FF
:101C90008053D3F8800F20F07F4018F05BF8D8F81D
:101CA000143093F89522002A00F00B81461F374626
:101CB00002EB82020A3A00EB020A7879BA79DFF87D
:101CC00030B200EA0201FF29DFF82892CDF814A013
:101CD00000F0D68003F5805393F8823F42EA034236
:101CE00042EA002018F036F80546D8F81430F879A2
:101CF00003F5805393F8822F3B7A43EA024343EA89
:101D0000002018F027F86988D8F814302C8803F5DB
:101D10008053AA8849BA97F809A093F890EF93F8EE
:101D200086CF93F8876F93F8885F64BA0388A9F821
:101D30000010694952BAABF80040684C0A80684A02
:101D40002680684EA2F800E0674A8488358046887D
:101D50005DBAA2F800C0FFF767FD5F4976BA64BAC2
:101D60000C80BBF90040ABF80050B9F90050A9F85D
:101D70000060FFF759FDBBF900305B4A3033138038
:101D8000B9F90030554A30343033240230351380ED
:101D9000544E23122D02ABF800302B12A9F800305C
:101DA000FFF70AFEB6F90020BBF90000002AB9F9D6
:101DB000006000F0818056DDCDF810A0BA46A4F591
:101DC0008073B3F5BE4FA5F5807C47D24FF0800EEF
:101DD000C5F3CF27E1123B0203EB0113A3EB8713FB
:101DE000C5F3022103EB41039BB203F5407102915D
:101DF000C4F3022103F201374EFA01F1BCF5BE4FE4
:101E0000019703975FFA81FC28D2D8F81430029F1B
:101E100013F807E02EEA010E03F807E0D8F81430B3
:101E2000019F13F807E02EEA010E03F807E0049B78
:101E3000D90708D5D8F814E0029B1EF803104CEA25
:101E400001010EF80310049B9B0707D5D8F8141066
:101E5000039BCF5C4CEA070C01F803C0013A044431
:101E60003544ACD15746059B9F422AD0B87AFA7ABE
:101E7000053700EA0201FF29D8F814307FF42AAFB1
:101E8000BA78FF2A08BF3A4605D021E012F8031CB1
:101E9000FF2919D12246D078541FFF28F6D04FF4DD
:101EA0007F4203F5805393F8823F42EA034318438D
:101EB00017F050FF054618E7CDF810A00122BA46EA
:101EC0007DE707B0BDE8F08F12F8020C0A02E8E7E0
:101ED000F8781202E5E700BFAA0A0620A60A062043
:101EE000A00A06209E0A0620A20A062074460020A8
:101EF000A40A0620A80A0620024A136903F5C04373
:101F0000536170477446002047F65E73984206D0CE
:101F1000044B5B690344A3F5C04318787047002065
:101F2000704700BF7446002047F64F722DE9F04F0E
:101F3000DFF848979142D9F814308BB00B44A3F5E1
:101F4000C043187007D047F64773994200F0CE801F
:101F50000BB0BDE8F08FD9F814C00CF5805494F89C
:101F60004D3F0E2B00F0DE805C2800F2A5815C283E
:101F7000EED801A252F820F04F280010CF22001016
:101F8000511F0010511F0010511F0010E7220010B8
:101F9000511F0010511F0010511F0010511F001041
:101FA000511F0010511F0010511F00100723001077
:101FB000511F0010511F00107D240010511F0010F0
:101FC000511F0010C3240010511F001005250010E0
:101FD000511F0010511F0010511F0010511F001001
:101FE000511F0010511F0010511F0010511F0010F1
:101FF000511F001085260010511F0010511F0010A6
:10200000B1260010511F0010511F0010D9270010D9
:10201000511F0010511F0010511F0010511F0010C0
:10202000511F0010511F0010511F0010FB270010FE
:10203000511F0010511F0010511F0010511F0010A0
:10204000511F0010511F0010511F0010511F001090
:10205000511F0010511F0010511F0010511F001080
:10206000511F0010511F0010511F0010511F001070
:10207000511F0010511F001085270010511F001024
:10208000511F0010511F0010511F0010511F001050
:10209000511F0010511F0010511F0010511F001040
:1020A000511F0010511F0010511F0010511F001030
:1020B000511F0010511F0010511F0010511F001020
:1020C000511F0010511F0010A3270010511F0010B6
:1020D000511F0010511F0010511F0010511F001000
:1020E000511F0010511F00103B260010D9F814405A
:1020F00004F58051B1F8452FD1F8400FC2F30C021E
:1021000020F07F40144417F025FE01462046D9F800
:10211000143003F58053B3F8432F0BB0BDE8F04FF4
:1021200044F06CBD3F2805D8830706D1800884F8A9
:10213000800F0DE75C2800F2BF8001385B283FF676
:1021400007AF01A353F820F0CF220010511F001059
:10215000511F0010511F0010E7220010511F0010E6
:10216000511F0010511F0010511F0010511F00106F
:10217000511F0010511F001007230010511F0010A5
:10218000511F00107D240010511F0010511F00101E
:10219000C3240010511F001005250010511F00100E
:1021A000511F0010511F0010511F0010511F00102F
:1021B000511F0010511F0010511F0010511F00101F
:1021C00085260010511F0010511F0010B12600106D
:1021D000511F0010511F0010D9270010511F00106F
:1021E000511F0010511F0010511F0010511F0010EF
:1021F000511F0010511F0010FB270010511F00102D
:10220000511F0010511F0010511F0010511F0010CE
:10221000511F0010511F0010511F0010511F0010BE
:10222000511F0010511F0010511F0010511F0010AE
:10223000511F0010511F0010511F0010511F00109E
:10224000511F001085270010511F0010511F001052
:10225000511F0010511F0010511F0010511F00107E
:10226000511F0010511F0010511F0010511F00106E
:10227000511F0010511F0010511F0010511F00105E
:10228000511F0010511F0010511F0010511F00104E
:10229000511F0010A3270010511F0010511F0010E4
:1022A000511F0010511F0010511F0010511F00102E
:1022B000511F00103B26001089287FF449AE44F2DC
:1022C00036320523A4F8802F84F8823F40E64FF48D
:1022D000106200210CF5407044F028FD0BB0BDE801
:1022E000F04FFFF7CDBCB4F8832F4AB14FF48033E1
:1022F000B3FBF2F3B4F8811F01FB03F3C3F30F2226
:10230000A4F8802F24E6B4F9800FB4F9831F00FBF2
:1023100000F201FB0122B4F9865FD04B002A1D8038
:1023200040F33A87B2F1804FC0F2C1854FF00053BD
:1023300002F1404243F0806696424FEA6303DCBFFD
:1023400043F08063921B43F08076B2424FEA63030E
:10235000A4BF43F08073921B43F4800696424FEA79
:102360006303DCBF43F48003921B43F48016B24244
:102370004FEA6303A4BF43F48013921B43F4802607
:1023800096424FEA6303DCBF43F48023921B43F47D
:10239000803696424FEA6303DCBF43F48033921BDE
:1023A00043F4804696424FEA6303DCBF43F4804324
:1023B000921B43F4805696424FEA6303DCBF43F41A
:1023C0008053921B43F4806696424FEA6303DCBF5E
:1023D00043F48063921B43F4807696424FEA630392
:1023E000DCBF43F48073921B43F0400696424FEAF1
:1023F0006303DCBF43F04003921B43F01006964298
:102400004FEA6303DCBF43F01003921B43F0040662
:1024100096424FEA6303DCBF43F00403921B43F090
:102420000106B2424FEA6303A8BF43F0010395FBE4
:10243000F3F5622305FB00F203FB02F205FB01F357
:10244000874F03EB430303EB431387FB030187FB36
:102450000207DFF81CC2DB17C3EB6113DFF820E2D1
:10246000804EACF80030A4F88C3FD317C3EB671351
:10247000CEF800503380A4F8893F69E5B4F8803F76
:10248000794AC3F30803B4F8830F32F9132077496C
:1024900000FB02F231F9133042F3CF3100FB03F3BA
:1024A00042F349528A1A43F3CF30111443F3807335
:1024B000A4F8860F84F8883FA4F8892F84F88B1F2E
:1024C00046E5B4F8802F694B6748C2F30802B4F8B8
:1024D000831F33F9123030F9122001FB03F301FBA3
:1024E00002F242F3D71142F3C75284F88B2F43F321
:1024F000D71243F3C753A4F8891FA4F8862F84F892
:10250000883F25E5B4F9833FB4F9802F03FB03F13D
:102510005448028002FB02125549002A0B8040F306
:10252000E084B2F1804FC0F2D2844FF0005302F148
:10253000404243F0806191424FEA6303DCBF43F0C5
:102540008063521A43F0807191424FEA6303DCBF0B
:1025500043F08073521A43F4800191424FEA6303BF
:10256000DCBF43F48003521A43F4801191424FEAD6
:102570006303DCBF43F48013521A43F48021914279
:102580004FEA6303DCBF43F48023521A43F48031E3
:1025900091424FEA6303DCBF43F48033521A43F4A1
:1025A000804191424FEA6303DCBF43F48043521AF7
:1025B00043F4805191424FEA6303DCBF43F48053FC
:1025C000521A43F4806191424FEA6303DCBF43F443
:1025D0008063521A43F4807191424FEA6303DCBF77
:1025E00043F48073521A43F0400191424FEA63036F
:1025F000DCBF43F04003521A43F0100191424FEA0E
:102600006303DCBF43F01003521A43F0040191420C
:102610004FEA6303DCBF43F00403521A43F00101A5
:102620008A424FEA6303A8BF43F001031AB29BB288
:102630001049A4F8803F0A808AE40F4C0022234608
:102640008CF800202F34C3F10105EA1813F8010FAC
:10265000D9F814109C428854F7D179E4980A0620DE
:102660001F85EB519A0A062064900410648C0410B4
:102670009C0A0620960A06206494041074460020E2
:10268000780A0620B4F9801F814DB4F9830F814B7D
:1026900029801880002940F028840028CCBF80229F
:1026A0004FF4C07213467C490A80A4F8863F4FE479
:1026B000B4F88C2F7949C2F30802B4F88F3F31F98E
:1026C0001200C3F30803002800F0FE83744D35F9AF
:1026D00012502D0495FBF0F531F91320002A00F07B
:1026E000F0836F4931F91360360496FBF2F6B4F8C3
:1026F000833FB4F8892F4FF400619C1A40F6E10043
:10270000674624B238E007F5805305FB04FCB3F8B4
:1027100080EFB3F8862FB3F8933F1344A2EB0E0279
:1027200002EB2C4206FB04FCA3EB0E030FFA82FE25
:1027300003EB2C43BEF1000F1BB292B2C0F25383E5
:10274000BEF1FF0F23EAE37C00F35783BCF1FF0FD8
:10275000A8BF4FF0FF0CD2B25FFA8CFC7A54D9F8C4
:10276000143001340B440131814283F800C124B29A
:102770003FF4EEABD9F81470002CC4DA4FF0000C23
:102780000122EBE700230CF1FF310CF2FF7011F88E
:10279000012F134488429BB2F9D1A4F8803FFFF780
:1027A000D7BBD4F8802F42F3170342F3C05203FB88
:1027B00002F1A3FB033202EB4102190E41EA0221AE
:1027C000180C1212A4F8833F84F8850FA4F8861F12
:1027D00084F8882FFFF7BCBBD4F8802FD4F8833F50
:1027E00022F07F4223F07F4302FB03F31A14A4F884
:1027F000803F84F8822FFFF7ABBBB4F8813F294EAE
:10280000294D3380B4F8843FB4F8872F2B80274BB1
:102810001A8094F8892F264B1A8094F88A2F254B1A
:102820001A8094F88B2F244B1A80244BB4F8902FE5
:102830001A80FEF7F9FFD9F8143031882A8803F599
:102840008053A3F8801FA3F8832FFFF781BB0C2BC5
:102850003FF67EAB01A252F823F000BFC52B00105B
:10286000511F0010511F00108F2B0010511F00101E
:102870007F2A0010511F0010C12D0010DD22001012
:10288000511F0010511F0010752C0010C12800109E
:102890009A0A06209C0A0620940A0620648C0410DA
:1028A00064900410A40A0620A80A0620AA0A06209A
:1028B000A20A0620A60A06209E0A0620A00A0620D2
:1028C000B64994F883AF01F15006634643F63F7E64
:1028D0004FF0020B51460CF5007202924CF2C00808
:1028E0004FF6F07A89460CEB090292F9005BADB223
:1028F000AAEB050109B2002980F289820A46C5F1D6
:10290000180424B2A64F04EAE474CDF8049037F812
:10291000029F013233F8090012B20EEA0000A2420F
:1029200023F80900F3DB2A190F32A14292B2B4BF97
:102930001146002102F10100A8BF0120C5F57F4525
:10294000F13529442828DDF8049009B21AD0934AB9
:1029500028F0FF0702EB400030F8024B07291A5B12
:102960000EEA020200F32E824FF4206511FB0B5594
:102970003CF80550013108EA05052A43864209B2B0
:102980001A53E9D109F1010202F07F094FEA8812D6
:1029900092B242EA98084FEA8E1292B242EA9E0E32
:1029A0004CF2C00290459ED149464FF4216A0CEB8F
:1029B000010292F9009B1FFA89F9C9F57F40F030B6
:1029C00000B2002880F225820246C9F118052DB216
:1029D000734F05EAE575019137F8021F0132103196
:1029E0005C5A12B20EEA0404AA425C52F4DB09EB10
:1029F00005020F32A84292B2B4BF1046002002F185
:102A00000104A8BF0124C9F57F4909F1F10948442F
:102A1000282C019900B21AD0604A28F0FF0902EB75
:102A2000440434F8025B072805F110055A5B0EEAEE
:102A3000020200F3CF8110FB0BA73CF807700130B6
:102A400008EA07073A43A64200B25A53E9D14A1CA2
:102A500002F07F014FEA881292B242EA98084FEAE8
:102A60008E1292B242EA9E0E4CF2C00290459ED166
:102A7000029A20339A427FF431AFFFF769BA94F893
:102A8000833F484E484F338094F8863F474A3B8007
:102A900094F8893F138094F88C2F454BB4F8804FFD
:102AA0001A8004B3E246434DDFF81481424BBAF872
:102AB00001200AF1100A2A803AF80B2CA8F800200D
:102AC0003AF8072C1A80FEF7D7FD2A88013C02F15C
:102AD00080022AF80F2CB8F80020374B02F1500280
:102AE0002AF80B2CE3D14023D9F81440334AB4F828
:102AF00000BBC4F80026C4F80826A4F80536A4F8DC
:102B00000D36BBF1000F3FF423AA2346294DDFF811
:102B1000B08004F6043A12E0A4F800362B88BBF12A
:102B2000010BA4F80236B8F800300AF1020AA4F842
:102B3000053604F108043FF40BAAD9F814301AF84A
:102B4000021C03EB0111B1F8011029801AF8021CD4
:102B500003EB0111B1F80510A8F800101AF8011CD8
:102B600003EB0111B1F8011031801AF8011C03EBDD
:102B70000113B3F805303B80FEF71EFF0B4B01221B
:102B8000B3F90030002BC7D1A4F80026C6E7002017
:102B90000BB0BDE8F04FFEF75DBF00BF148C041012
:102BA000128C0410A20A0620A60A06209E0A0620FD
:102BB000A00A0620A40A0620AA0A06201700600020
:102BC000A80A06209CF826260CF2FD130CEB8206C0
:102BD0009E420ED20CF5FE739B1B23F003030CF2F6
:102BE000F511C91AE0230CF2F9121371043A8A4262
:102BF000FBD1D9F8144094F8201600293FF4A8A975
:102C0000B4F82136B4F82326049394F826360592B6
:102C100004EB930202F50077C3F1800203F0030393
:102C20004FEA4308D5B24FF0300B42460B46B84648
:102C300059462F461546019393B104F50C7B039139
:102C4000002F00F03281019A03991BF80C4C04F01C
:102C500030038B4200F0DF80013A0BF1100BF4D10E
:102C6000103911F1100F3FF473A9D9F8144094F8FA
:102C70002036E0E794F88C3F94F889BFB4F9801FC0
:102C80001BFB03F2B4F986AF0193B4F9833FB4F9A7
:102C90008F6F080201FB1A07190203FB1615604625
:102CA000002152080CF5C06444F040F8019B002B51
:102CB0003FF44EA9BBF1000F3FF44AA90020AC46F7
:102CC00086464FEADC230BFB03F3002204933B46CA
:102CD0004FEA1C250BFB05F1CDE90667CDE908ECB1
:102CE0000391DDF8048005F007010591BBEB132F7C
:102CF0004FEA132102F0010050D945454ED2039E00
:102D00000E44B6F5005F49D294F800C008B14FEA0E
:102D10001C1C8026049F01F0070146FA01F1DE0A1F
:102D200007EBC606059F1CF0010F07EB46064FEAAE
:102D30004607C9B2029707D0D9F8147017F816E001
:102D400041EA0E0E07F816E01CF0020F0BD0029EAF
:102D5000D9F8147006F1010ED9F8146016F80E6057
:102D60000E4307F80E601CF0040F0BD0029ED9F83A
:102D7000147006F1100ED9F8146016F80E600E43A8
:102D800007F80E601CF0080F08D0029FD9F81460F5
:102D9000113716F807C041EA0C01F15500B10134B2
:102DA00001325A455344A1D1DDE908ECDDE906675B
:102DB000019B0EF1010E9E45B44482D1FFF7C8B8C5
:102DC0004020E5E63A43013186421A5309B27FF4C6
:102DD000C3ADD7E542EA09020130A6425A5300B218
:102DE0007FF41FAE33E6002BFFF6C8ACFF2BA8BF65
:102DF000FF2300225FFA83FCB0E4FF2B03DCFF22F9
:102E00005FFA8CFCAAE44FF0FE0CFF22A6E400203F
:102E10009DE5002400E6049B3BF810AC0192AAEB70
:102E2000030A059A3BF80E3C5BF8090C9B1A9BB20F
:102E30001BF80B1C02931BF80A3C20F07F401C433C
:102E4000069116F087FF0278034606991FFA8AFA60
:102E5000002A63D11346032202986AF3070360F342
:102E60000F2361F3174364F31F63336098F8003056
:102E7000AA401AF4807F23EA020304BF0222AA4078
:102E800013430235DBB2013F15F0060588F8003028
:102E900006F10406FFB208BF08F10108019B0BF11F
:102EA000100B013B01937FF4CBAE0399D8E6B2F14E
:102EB000805FAABF4FF08053002302F17042FFF7FA
:102EC00039BA4FF0004612E44FF0004504E4B2F185
:102ED000805FAABF4FF08053002302F17042FFF7DA
:102EE00028BB00231A46FFF7A3BBFEF79DFBB5F9ED
:102EF000002000EBD07040F34F03002AB8BF03F569
:102F00008073A64AD9F814C0B8BF1BB2C3F3080334
:102F100013800CF580549BB2FFF7C7BB60B214F06E
:102F2000400F069003F1050340F0C580002806918C
:102F300064DB13F903CCD4441FFA8CFC0CF11000B1
:102F400080B2B0F5907F69D9013AA7D00433F0E799
:102F500013F8040C029910F0200F14BF4FF0100E5C
:102F60004FF0080E13F9020C1EFA80F0081A80B216
:102F700000F1100E1FFA8EFEBEF1F00F49D87070EE
:102F800086F800C013F8010C06991CF4807F0844F1
:102F90004FF00301B07013F8040C01FA05FE20F0A5
:102FA0003F0080EA0400F07098F8000020EA0E006C
:102FB00005D0012101FA05FC40EA0C00C0B288F8F6
:102FC000000013F804CC1CF0200F06D0022101FAF7
:102FD00005FC40EA0C0088F800000235013F15F0BE
:102FE000060506F10406FFB201D108F10108013A15
:102FF0003FF454AF0433002F3FF450AF13F903CC28
:10300000D4441FFA8CFC0CF1100080B2B0F5907F14
:103010009ED9013A3FF442AF0433EFE713F9020CB3
:103020000299084480B200F1100E1FFA8EFEBEF124
:10303000F00F89D8707086F800C013F8010C06995B
:103040001CF4807F08444FF00301B07013F8040CA7
:1030500001FA05FE20F03F0080EA0400F07098F8C5
:10306000000020EA0E0005D0012101FA05FC40EA2B
:103070000C00C0B288F8000013F804CC1CF0200F3C
:1030800006D0022101FA05FC40EA0C0088F8000095
:10309000023515F0060507F1FF3708BF08F10108F2
:1030A000013A06F10406FFB23FF4F8AE0433002FF4
:1030B0007FF43FAFF2E6079113F8040C13F903CC49
:1030C00010F0200F0CBF0820102010FA8CFCAAEB87
:1030D0000C0C1FFA8CFC0CF1100E1FFA8EFEBEF5C4
:1030E000907F04D9013A3FF4D9AE0433E4E706995E
:1030F00013F902EC0029BCBF704440420299ACBFF6
:103100001FFA8EF080B2084480B200F1100E1FFA50
:103110008EFEBEF1F00FE5D8707086F800C013F88F
:10312000010C07991CF4807F08444FF00301B07034
:1031300013F8040C01FA05FE20F03F0080EA0400B9
:10314000F07098F8000020EA0E0005D0012101FA85
:1031500005FC40EA0C00C0B288F8000013F804CC6B
:103160001CF0200F06D0022101FA05FC40EA0C00F9
:1031700088F80000023515F0060507F1FF3708BF93
:1031800008F10108013A06F10406FFB23FF486AEE9
:103190000433002F90D181E6FFDE00BF940A0620A1
:1031A00000680B68C01A704700680B68C01A704747
:1031B0002DE9F04F42F22C1942F22E13CA46A7B065
:1031C000AB4CDFF8BCB2009342F22C1100228A45CE
:1031D000DFF8B082DBF8103004F11406626100F011
:1031E0008D8003F5005393F8305105F03005302DF4
:1031F00000F01686002D00F0DC80A5F11005B5FA70
:1032000085F59C486D0910F8063C0278002B00F00B
:103210008B8005270C38984B817C93F8A6EA93F8AD
:10322000A7CAD9B90CF101017346CDE90AE1002A18
:1032300046D1002D00F0CF83994280F019860023FB
:10324000B3614FF48073C6F8A8300120052F3060B9
:1032500040F04681042708F1FF38ADE0E64526D866
:10326000BEF1000F00F0E3820023BCF1FF0F7146B6
:10327000CDE90A3E00F07F84022301210DF1980E72
:103280000EEBC1010CF1010C41F870CC4FF4807CC5
:1032900041F86CCCAAB9002D00F09A85012B0B994E
:1032A00001F088800C9BB161C6F8A830CDE74FF0E3
:1032B000000C4FF48073CDE90AC3002A00F062834A
:1032C0000123027E002A40F0C0816B4991F8A92AAF
:1032D0000132059291F8A82A04924FF001090822C0
:1032E000CDF80490017881F00101032900F27F8379
:1032F000DFE811F0A402F402C601C40103F5005393
:1033000093F8303103F0C005C02D2CD03F2B50D99D
:10331000A5F14005B5FA85F556486D0910F8063C4B
:103320000278002B7FF475AF002A93D0037B0C3812
:103330000527002B00F0BB804F4B93F8A82A93F889
:10334000A91A8A4240F24D824FF000094FF480736F
:10335000CDE90493002D00F049850123B3610023DA
:10336000C6F8A830B7E00121444BC3F81024C3F8D5
:103370001424C3F81824C3F81C24C3F82024C3F869
:103380002424C3F86813C3F88013C3F86C13C3F87C
:103390008413C3F87013C3F88813C3F87413C3F805
:1033A0008C13C3F87813C3F89013C3F87C13C3F8D5
:1033B00094130427DFF8D0800021DBF81020009858
:1033C00046F8041D12F80A30125C656913403B414F
:1033D00003F00103002D59D0002B40F0F18035603F
:1033E000E36A012DB361D4F8BC30C6F8A83028D008
:1033F000636C022D3363D4F8D430C6F8C03020D0CB
:10340000E36D032DB364D4F8EC30C6F8D83018D08F
:10341000636F042D3366D4F80431C6F8F03010D051
:10342000D4F88C30052DB367D4F81C31C6F80831B8
:1034300007D0D4F8A430C6F89030D4F83431C6F8A8
:103440002031013F7B1C08F1FF38B5D142F22E1329
:1034500000990AF1010201319A4242F22D1A04F553
:103460009C7400917FF4B0AE27B0BDE8F08F00BF30
:10347000FC430020BD510020FC4600209440002069
:1034800074460020B1510020B0510020002BD8D04C
:1034900098F80630404698F80C20002B7FF4BBAE1D
:1034A000002ACED01D46037E002B7FF445AF724B21
:1034B00093F8A92A93F8A83A0132CDE90432002DF5
:1034C00000F09584934240F264820023B3614FF48C
:1034D0008073C6F8A83001213160052F3FF4BAAEE1
:1034E0006569002DADD03368002B3FF478AF03EB56
:1034F000430307EB430C3146B64604EB8C0C3CE02F
:10350000D1F8A8609E4246D8012D2ED0636C9A4215
:1035100061D2D1F8A8609E4267D8022D25D0E36D14
:103520009A4264D2D1F8A8609E426AD8032D1CD07A
:10353000636F9A4267D2D1F8A8609E426DD8042D7D
:1035400013D0D4F88C309A4269D2D1F8A8609E4248
:103550006FD8052D09D0D4F8A4309A426BD3D4F893
:10356000340182426ED39A4265D0012200208A61E2
:10357000C1F8A80018318C4520D08A69E36A9A42C4
:10358000BED3D4F8BC0082425CD39A42BCD1D1F8FD
:10359000A8609E42B8D9002000EB400004EBC000B8
:1035A000D0F8BC009A4238BF1A46B04228BF304615
:1035B0008A61C1F8A80018318C45DED1764640E713
:1035C00098F80630404698F80C20002B51D1002A7C
:1035D0007FF468AF85E7D4F8D400824232D39A42B0
:1035E0009BD1D1F8A8609E4297D90120D4E7D4F8A6
:1035F000EC00824226D39A4298D1D1F8A8609E422C
:1036000094D90220C8E7D4F8040182421AD39A421E
:1036100095D1D1F8A8609E4291D90320BCE7D4F897
:103620001C0182420ED39A4293D1D1F8A8609E42E7
:103630008FD90420B0E7D1F8A860B34238BF052085
:1036400093D2A9E7D1F8A860ACE70B4991F8A82A72
:1036500091F8A91A8A4200F2E480002A40F0C98158
:10366000FF2900F006854FF4807201310491059224
:1036700033E60D46CFE500BFFC46002085F001058E
:10368000012B00F04483019A012A40F0C581DDE955
:103690000421914200F2C081DA000AA91AA89946D1
:1036A000019343F0C7FD019B002D00F03082DDE95E
:1036B0001A218A4280F0F482B9F1010F00F0F580FE
:1036C0001D9B1C98984280F09E83B9F1020F35D063
:1036D000DDE91E239A42C0F0B582B9F1030F00F074
:1036E0006E86DDE920239A424FF00203C0F04D833D
:1036F000B9F1040F00F0BE82DDE92212914280F0A0
:10370000058426AA02EBC302303A22A9B9F1050FBB
:1037100003C982E8030003F1010200F0F884DDE947
:103720002401884280F0F38426A901EBC202303ADA
:1037300051E9020182E8030003F10209B54B0822B6
:1037400049461AA841F048FE1A9B002B00F0398424
:103750000133C6F8A8300023B3611C9BB9F1020FF6
:1037600003F10103C6F8C0301B9B09F1FF3233633C
:1037700000F04E851E9B022A03F10103C6F8D830E3
:103780001D9BB36400F03685209B1F99581C032AAB
:1037900004EB87031966C3F8F00000F0EF85229B65
:1037A0002199581C042A04EB87039967C3F8080180
:1037B00000F03785249B23995A1C04EB8703C3F838
:1037C0002021259AC3F89010FF2A00F235854FF486
:1037D000807104EB8703C3F8A820C3F838110723CE
:1037E000FFE0002A00F00C810023FF29CDE904321C
:1037F00000F058844A1CD2B206924FF480720792AD
:10380000002B40F0F9820223059A002D00F0398246
:10381000012B00F04382069BB2610133C6F8A83049
:1038200059E600214FF48072CDE9041255E5BCF150
:10383000FF0F00F0C680714601231FE5012B00F049
:10384000AE81DDE90431019A012A00F02D830A9A44
:103850000C989A4228BF1A460B9B994238BF1946CA
:10386000069B8C46984228BF18460D99079BCDE9C8
:103870001A2C8B4238BF0B468242CDE91C0380F0E4
:103880005E83844540F21E84824228BF02469C45E6
:10389000614638BF1946CDE91A21002D00F08A8310
:1038A000DDE91A21914240F22B82002A00F08B823E
:1038B00000230132FF29C6F8A820B36100F29080EE
:1038C00002230122524202F006023A4404EB820231
:1038D00091614FF48071C2F8A81082E0012B00F0D2
:1038E0008D81DDE90430019A012A00F0F882DDE9DA
:1038F0000A1201920C9A994202920D9A8E460392F4
:10390000019A38BF9E46824228BF0246DDF818C0A1
:103910001B92029ADDF81C909445CDF868E0E646CB
:1039200038BF9646039ACDF870E04A4528BF4A460C
:10393000614596461D92C0F016834945C0F0178335
:10394000614500F01083029A9A4280F0B583039A91
:103950009A4240F2B783029A9A4238BF1A46039BB2
:10396000834228BF03461846CDE91E23002D00F0F0
:103970000A834FF003091D9BDDE91A218A42FFF4F7
:10398000A0AE91E13DB30123B3610023C6F8A83096
:103990005BE4002B00F0CE82C6F8A8300023FF2A9B
:1039A000B3613FF698AD022101235B4203F00603A9
:1039B0003B4404EB83039A614FF48072C3F8A82060
:1039C0008AE50123CDF82CE00A93002A7FF478AC35
:1039D000002D7FF434AC0A9BB3610B9BC6F8A83072
:1039E0000123336079E5B9F1000F7FF460AE002365
:1039F000F7E705920022FF2904927FF4FBAE6CE406
:103A0000FF2900F02F834FF4807301310593049157
:103A10000123F9E6A931001085F001030293002388
:103A200010930A9B11930B9B12930D9B14930C9B69
:103A30001393049B1593059B1693019B022B4FF048
:103A4000050304D117AADDE90610C2E90010019AA6
:103A500010A8013A03EB42034FF48072DD1C0DEB1A
:103A600083039A642946BE4B042241F0B5FC00232F
:103A700099460DEB8302106C0DEB8302526C904261
:103A800000F0FA8026A901EBC90141F8300C981C1E
:103A9000854240F25A810DEB800CDCF840C0624553
:103AA00040F0FC810DEB8302D06C1A1D954240F270
:103AB00047810DEB820CDCF840C0604540F04A8144
:103AC0000DEB8302506D9A1D954240F239810DEB4A
:103AD000820CDCF840C0604540F03C810DEB830275
:103AE00008339D42D26D40F23081189B9A4240F0DB
:103AF000DD82199B09F1010941F82C3C029B002B46
:103B00007FF471AF4B46B9F1000F3FF470AF1A9AD2
:103B1000B9F1010FB2611B9AC6F8A8203FF461AF5A
:103B20001C9AB9F1020F32631D9AC6F8C0203FF407
:103B300058AF1E9AB9F1030FB2641F9AC6F8D82085
:103B40003FF44FAF209AB9F1040F3266219AC6F8BC
:103B5000F0203FF446AF229AB9F1050FB267239ADD
:103B6000C6F808213FF43DAF249AC6F89020259A64
:103B7000C6F8202135E7002A7FF4A2AB002D3FF4E0
:103B80002AAF012053424FF4807203F006033B44F6
:103B900004EB83039961C3F8A820FFF757BBDDE965
:103BA0000A13994280F071810198049A012800F06B
:103BB0004182914280F0E982934200F2E583069AC5
:103BC000914280F0CB82934200F2DC830DF16809D0
:103BD00004A90DF1700C0DF1280E1EAB06AA03C945
:103BE00089E803009EE803008CE8030092E80300E4
:103BF00083E80300002D7FF4BCAEC4E1DDE90A01D7
:103C0000884280F0D181DDE9042C019B012B00F07A
:103C10008382824238BF02468C45634628BF0B46EA
:103C2000CDE91A23069B834238BF03461C93079BAA
:103C30008B4228BF0B461D93002D00F089814FF069
:103C4000020999E6B9F1030F3FF478ADDDE92023CD
:103C50009A42C0F01382B9F1040F00F0B483DDE999
:103C600022329A424FF003033FF64BADB9F1050FF4
:103C700040F05081994661E502339D423FF6F9AE2E
:103C80003CE7C6F8A820049A022BB2617FF4A8AEE4
:103C9000069A3263079AC6F8C020A2E6049B11E494
:103CA000B9F1010F2CD01D9B1C9A9A420CD3B9F18B
:103CB000020F25D0DDE91E329A4200F22382B9F1CB
:103CC000030F1DD0002311E01AAB1CAAB9F1020F9B
:103CD00092E8030083E8030000F01682DDE91E236A
:103CE0009A423FD3B9F1030F68D00123DDE92012D6
:103CF00091424AD3B9F1040F7FF4FEAC002B5AD1A4
:103D00000023B3614FF48073C6F8A83068E6DDE99C
:103D10000A10814280F0B980019A012A40F0E481C2
:103D2000DDE904C29445BFF4B7AC85F0010302930A
:103D30000023CDE911101093CDE913C2032386E6C9
:103D400041F82C0C09F10109D8E641F82C2C09F1B5
:103D50000109D3E6134641F82C0C09F1010988E664
:103D6000A1310010012326AA02EBC302303A1EA99A
:103D7000B9F1030F03C903F1010382E803001AD06C
:103D8000DDE92021914240F2BC8026AA02EBC30269
:103D9000303A20A9B9F1040F03C903F1010382E805
:103DA000030008D0DDE9222191423FF6AAACB9F127
:103DB000050F40F0AF80012B7FF45CAFDDE91A21E5
:103DC000002A7FF475ADFF2900F29680012379E582
:103DD0000A9A022BB2610B9AC6F8A8207FF400AEB3
:103DE0000C9A32630D9AC6F8C020FAE5049BB361C1
:103DF000059BC6F8A830F3E54FF002091022CDF874
:103E00000490FFF76FBAB9F1020F3FF44EADDDE950
:103E10001E309842A6D8B9F1030F7FF466AF44E58F
:103E20000121BC4BC3F84825C3F84C25C3F85025E5
:103E3000C3F85425C3F85825C3F85C25C3F8A0146B
:103E4000C3F8A414C3F8B014C3F8C014C3F8A8147A
:103E5000C3F8AC14C3F8B414C3F8B814C3F8BC1452
:103E6000C3F8C414C3F8C814C3F8CC14FFF7FCBAE1
:103E7000002B00F0B981C6F8A8300023FF29B361F8
:103E80003FF6E3A9022001227CE604A91AA843F028
:103E9000D1F9002D7FF40BAC4B4638E6034641F8D0
:103EA0002C2C09F10109E4E58B4280F0D0800A9ABC
:103EB0009A4240F20B828A42C0F04B820C989842A0
:103EC00040F2EC818842C0F042820DF168090AA9F3
:103ED0000DF1700C0DF1100E1EAB0CAA7FE68342A3
:103EE000C0F093801AAB04AA92E8030083E80300B1
:103EF000002D7FF4D5AC5DE00123C6F8A820B361A6
:103F00006EE5B9F1040F7FF4F7AB54E7B9F1050F93
:103F10003FF4F4AEDDE924129142BFF4EFAE26AADD
:103F200002EBC302303A26A911E90300013382E80B
:103F3000030040E7FF2A3FF610AA012135E59A4227
:103F4000FFF4A2AC82423FF49CAC002D7FF477AE2C
:103F5000C6F8C0301A9BB3611B9BC6F8A8301C9BE7
:103F6000336302233DE5019A62457FF6ECAC019B89
:103F7000614538BF61464B4528BF4B46CDE91E130E
:103F8000002D7FF4F6AC1A9BB3611B9BC6F8A830DA
:103F90001C9B33631D9BC6F8C0301E9BB3641F9BE4
:103FA000C6F8D83003231CE51AAB83E80300002DC4
:103FB0007FF476AC1A9BB3611B9BC6F8A830012333
:103FC0000FE51C9BB9F1020F03F10103C6F8A830FD
:103FD0001B9BB36109F1FF3300F031811E9A022B64
:103FE00002F10102C6F8C0201D9A326340F033810D
:103FF0001F9AFF2A00F22C814FF4807104EB870393
:104000009A64C3F8D8100323EBE40A9A9A4238BFA3
:104010001A461A920B9A824228BF02461B920C9AA9
:104020009A4238BF1A460D9B1C92834228BF034612
:104030001D938AE7059890427ED81AAB0AAA92E8A7
:10404000030083E80300002D7FF42AACB2E70DF1F2
:10405000680C0AAB0FCB8CE80F00002D3FF478AF53
:104060001D9BECE5012305920493002D7FF42DAAFE
:10407000BDE6059201220492FFF72FB9B9F1040FB2
:104080003FF45CABDDE922239A421FD3B9F1050F5F
:1040900004D0DDE924329A4200F28F814FF0040906
:1040A000FFF74CBB002D7FF448AFA0E6082341F892
:1040B0002C2C09F10109DCE48242FFF44CAC9A4259
:1040C0003FF445AC002DCBD11D9B41E7B9F1050F65
:1040D0003FF434ABDDE924239A4234BF4FF00609A4
:1040E0004FF00509FFF72ABB85F001030293002377
:1040F0001093049BCDE911101393059B15AA1493FB
:104100000323A0E400232EE60246FFF7CEBB1346AE
:1041100051E600BF944000206245BFF4E3AE824206
:1041200038BF02468C45634628BF0B46CDE91A23AB
:10413000002D7FF4B5AB3DE7914280F0278193429B
:1041400040F227818A4228BF0A46984238BF184663
:10415000CDE91A20002D7FF4A3AB2BE7079881420D
:1041600002D391427FF432AD914228BF114683427F
:1041700038BF0346CDE91C131AAA04A903C982E873
:104180000300002D3FF4E4AE59E50598814202D3C7
:1041900091427FF414AD8A4228BF0A46984238BF44
:1041A0001846DDF818C086466145CDE91A2080F032
:1041B000AF80634500F2CF801CAB06A903C983E83A
:1041C000030062451D9B80F09C80E6457FF6BDAEF6
:1041D000624528BF6246734538BF7346CDE91A234E
:1041E000002D7FF45DABE5E6FF293FF6CCAB1A4628
:1041F0000120C7E41F9AFF2A3FF605AF4FF48071F4
:1042000004EB87031A66C3F8F0100423FFF7E9BB39
:104210001D9BFF2B1CD8B3644FF48073C6F8D830B5
:10422000F1E6239AFF2A36D84FF4807104EB870316
:10423000C3F89020C3F820110623FFF7D2BB1D9AC4
:10424000FF2A3FF6CEAB4FF480733263C6F8C0301E
:104250000223FFF7C6BB209A1F99501C032B04EBC7
:1042600087029164C2F8D80000F08380229A2199D5
:10427000501C042B04EB87021166C2F8F0006CD0CE
:10428000249B23995A1C04EB8703C3F80821259A21
:104290009967FF2AC8D90523FFF7A3BB0D9A9A4255
:1042A00002D898427FF411AE984228BF18468A423D
:1042B000134638BF0B46CDE91C031AAA0AA903C945
:1042C00082E80300002D3FF443AEB8E40B98984217
:1042D00002D89A427FF4F2AD9A4228BF1A46884229
:1042E00038BF0846DDF830C086469C45CDE91A2027
:1042F0001DD98C4529D31CAB0CA903C983E8030045
:104300005FE79A42FFF464AF62457FF41EAE5CE75C
:104310000798814202D361457FF44EAF8C4528BF98
:104320008C46984238BF1846CDE91CC049E70D9825
:10433000984201D89C45DED19C4528BF9C468842C6
:1043400038BF0846CDE91CC03BE70D98F4E70D9A4D
:10435000AAE70B98C0E70798E0E7239AFF2A3FF601
:1043600054AF4FF4807104EB87039A67C3F80811C8
:1043700091E7219AFF2A7FF641AF44E6219AFF2A6E
:10438000EFD942E70798EFE6059804E78142FFF48A
:10439000D9AE0DF1680C0AA91CAB04AA03C98CE8BC
:1043A000030092E8030083E80300002D7FF458AE79
:1043B0000B46CDE50A9BFEF73FBF0423AFE54FF068
:1043C0000209FFF7BBB94FF00309FFF7B7B900BF08
:1043D00070B50024234D4FF6FC702C7215F056FA80
:1043E00040F2FF134FF49A722B821F4B6A811A68B6
:1043F000012602F003021A60BC220821C3E9076209
:104400001022C3E90B12194AC3E903449268C3E9B5
:104410000544C3E912445C601C819C6283F83C4003
:104420005A62C5E90844E882EC816C72EC746C75E0
:1044300015F0CAFCAB7A0E4A03EA06006A60C3F3C1
:104440004002724060F3070423F07F0162F30F24FF
:10445000C3F3801361F3174463F31F64AC612E77D9
:1044600070BD00BF604000204C3D0020E00E0420E5
:1044700094A0041038B51C4C4FF400420021206970
:104480001A4D42F053FC4FF480320021A06842F0F4
:104490004DFCFFF79DFF2AF071FA0EF0FFFEFCF7CE
:1044A00025F995F84B307BB995F84A3093B995F8D2
:1044B0004630ABB923F084FE20684FF40032BDE8EB
:1044C0003840552142F032BC15F024F995F84A30B5
:1044D000002BECD020F020FE95F84630002BE9D0E0
:1044E000FDF70AFDE6E700BF74460020E00E042059
:1044F00010B40324094B19689A7941F400611960DA
:10450000D97902439A71DC6429B10021DA68D9644F
:104510000132DA60D9715DF8044B70474C3D0020E0
:104520002DE9F8439E4CE369627A0133012AE36185
:104530003ED01BD9931E012B00F20481994D95F8B2
:104540009B3A002B00F0D08095F89A3A002B00F0AF
:10455000FE80B5F84A38A16A994200F0F880032A33
:10456000914E00F062810023B2680BE08F4F8D4DB9
:104570007878002840F0AC8095F89B1A8A4E012389
:10458000726889B1B5F99C1A91420DDA606A81426C
:104590000ADD95F89A0A002800F0CD80B5F84A089F
:1045A000A56A854200F0C78063726262BDE8F88345
:1045B0007D4E236A7268DFF804829B1A236298F8A2
:1045C00014307B4F0BB13B689B1A3B60337D4FF03F
:1045D000FF32002B0CBF4FF483734FF49C73A06A1F
:1045E00001309842C4E9092080F289806D4D95F828
:1045F0009A3A3BB195F89B3A23B9B5F84A288242DA
:1046000000F04A81B5F86A385A1C824200F0D8801E
:104610000333834200F0BF80012800F0AD80002802
:1046200004DDB5F86A38834280F24A8197F8DA30BF
:1046300023B3B7F8D030B7F8D6C004339BB2634584
:10464000A7F8D0301AD3D8F80CE0D8F824109EF888
:10465000FF200131A3EB0C039BB201326345894675
:1046600002F00F0201F10101F4D2A7F8D0300123CA
:104670008EF8FF20C8F8249088F81430C3071BD5A3
:1046800097F8D83053B1B7F8CC30B7F8D22001330F
:104690009BB29A42A7F8CC3040F2E08097F8D9302C
:1046A00053B1B7F8CE30B7F8D42001339BB29A4259
:1046B000A7F8CE3040F2BC80637A95F89B1A002BA5
:1046C0003FF45DAF032B3FF45AAF0023B26858E7C5
:1046D000B5F86A38A26A9A423FF74EAF0EF07CFCFA
:1046E000314E637A7870E8E7032A08BF01232E4A27
:1046F00063720CBF526892686262BDE8F883002260
:104700002C4B2D481B69274D03F5005393F83F119F
:10471000A26281F0800183F83F11836A62710133E4
:104720008362236885F8462843F0100323600EF067
:1047300081FBA06A5BE7B3680A469942B4BF0223D3
:10474000032331E7174D184E95F89B1ABDE7032157
:10475000A379E16443F00103A371236843F4006388
:104760002360E379002B3FF4FAAE0021E368E164B3
:104770000133E360E171F2E604220E4B1B6903F59D
:10478000804383F81022236823F08003236019F00C
:10479000B9FEA06A43E723F0F5FDA06A3CE700BF3D
:1047A0004C3D0020FC460020E00E042094400020F8
:1047B000383C002074460020604000202440002047
:1047C0001BF048F90022414B41491B694A7003F52F
:1047D000005292F80021D009D20985F8710817D14A
:1047E000B5F8680895F84228A5F844080AB1C0F35E
:1047F000460295F84708C00703D495F84002904256
:1048000003D085F8402201228A70002285F84728CB
:10481000842203F5804383F8102293F90032002BA1
:1048200031DBA06AB5F86A38F2E601237268A9E6BE
:1048300000230120D8F80C10A7F8CE3091F8FE2004
:10484000D8F824300244013302F00F02C8F82430B3
:1048500088F81400637A81F8FE202EE70023A7F879
:10486000CC30012388F81430D8F82430D8F80C2044
:104870000133C8F8243092F8FD30013303F00F0300
:1048800082F8FD300AE701236371236843F0800357
:104890002360236CA364C4E70322E264A27942F09C
:1048A0000202A271226842F400622260E279002AC8
:1048B0003FF4A8AEE364E371E3680133E360A1E68B
:1048C0000138C0B21AF0ECF8A06AAFE674460020D6
:1048D000944000202DE9F041584E594C594F5A4D03
:1048E000DFF868813CE02368002B28D01A060FD53A
:1048F000A26C013AA2645AB9E17923F080032360E3
:1049000019B1E368E2710133E3600DF0F5F9236852
:10491000180512D5E26C002A30D1E17919B1E168AD
:10492000E2710131E160A279002A65D098F8102087
:10493000002A61D1BA7A51077CD5D80629D4E36818
:10494000226AE16A581C0A4422626361E0607A6864
:104950001B7852F823309847D4E908239A424FDA5B
:10496000337D002BBFD02A68236A9A42BBDC25F036
:10497000D5FF2A68236A9A42F9DDB4E7013AE26476
:10498000002ADAD1BA7A520744BF0122E264D8067B
:10499000D5D5787EBA7EB0FA80F0FD7E22F07F0217
:1049A00042EA85123D7E40092A4342EA4002E1681C
:1049B0002069BD7A091A05F03C05F068F982316872
:1049C0002A43091ABA723279718196F8281002F0D6
:1049D0003C02327111B142F00102327196F8291095
:1049E00096F82A00B9B970B942F0020223F0100318
:1049F00032712360BDE8F08123F4006323609CE7FB
:104A0000FFF78EFDACE742F0420223F01003327153
:104A10002360BDE8F08110B142F040023271090616
:104A200048BF62F07F0223F0100348BF3271236059
:104A3000BDE8F0810DF0A4F823687EE72440002053
:104A40004C3D002060400020383C0020E00E042057
:104A50000B4A30B4D0680B49441CD46000780B7BFF
:104A6000156A03404FF00000D46A63F3070063F354
:104A70000F202C44A1F8190014620B7330BC70474E
:104A80004C3D0020604000200B4A10B40B49D46814
:104A90008B8934F8020B0340D4601C1E18BF01241C
:104AA0008B811B0A106A8B76136B4C7618445DF869
:104AB000044B1062704700BF4C3D00206040002056
:104AC000084B10B4197B084C4A00206AD2B2C909BD
:104AD000063019765A769A7620621A735DF8044B7E
:104AE000704700BF604000204C3D00200D4A10B4CC
:104AF0000D4C9389206A5B009BB2063020624FF018
:104B000000011C1E18BF0124507B9381C00960F373
:104B1000070164F30F211B0A937611835DF8044BA0
:104B2000704700BF604000204C3D0020094B10B48E
:104B3000D96809484C1CDC6091F800C0017B1A6AF6
:104B400001EA0C014176D96A5DF8044B0A441A6205
:104B5000704700BF4C3D002060400020094A10B45F
:104B6000D068094C30F8021BA389D0600B40003B91
:104B700018BF0123116A106B637601445DF8044B82
:104B8000116270474C3D0020604000200D4A10B477
:104B9000D0680D49441CD46000780B7B8342B4BFBD
:104BA0004FF0000C4FF0010C1B1ADBB2106A4B7671
:104BB0008B76D36A81F818C018445DF8044B1062F4
:104BC000704700BF4C3D002060400020114A10B4E7
:104BD000D368114C33F802CBA189D3606145A1EBB6
:104BE0000C03B4BF002101214FF0000C9BB261F314
:104BF000070C191E18BF01211B0A106AA376136B3C
:104C000061F30F2CA4F818C018445DF8044B10622F
:104C1000704700BF4C3D0020604000200D4A10B49A
:104C2000D0680D49441CD46000788B7C8342B4BFAB
:104C30004FF0000C4FF0010C1B1ADBB2106A4B76E0
:104C40008B76D36A81F818C018445DF8044B106263
:104C5000704700BF4C3D002060400020114A10B456
:104C6000D368114C33F802CB618AD3606145A1EB64
:104C70000C03B4BF002101214FF0000C9BB261F383
:104C8000070C191E18BF01211B0A106AA376136BAB
:104C900061F30F2CA4F818C018445DF8044B10629F
:104CA000704700BF4C3D0020604000200D4A10B40A
:104CB000D0680D49441CD46000780B7D8342B4BF9A
:104CC0004FF0000C4FF0010C1B1ADBB2106A4B7650
:104CD0008B76D36A81F818C018445DF8044B1062D3
:104CE000704700BF4C3D002060400020114A10B4C6
:104CF000D368114C33F802CBA18AD3606145A1EB94
:104D00000C03B4BF002101214FF0000C9BB261F3F2
:104D1000070C191E18BF01211B0A106AA376136B1A
:104D200061F30F2CA4F818C018445DF8044B10620E
:104D3000704700BF4C3D00206040002000220A491F
:104D40000A480B7B10B4013BDBB2046A826163F357
:104D5000070263F30F220634A1F8192004620B73D3
:104D60005DF8044B704700BF604000204C3D0020C0
:104D700010B40024094A0A499389086A013B9BB28E
:104D800006300862181B18BF012093811B0A937616
:104D900050768C615DF8044B704700BF6040002086
:104DA0004C3D00200B4A30B4D0680B49441CD46001
:104DB00000780B7B156A43404FF00000D46A63F320
:104DC000070063F30F202C44A1F8190014620B7341
:104DD00030BC70474C3D0020604000200C4A0D491B
:104DE000D0688B8930F802CB00B5B3EB0C0E18BF3E
:104DF0004FF0010E83EA0C038B811B0AD0608B7687
:104E0000106A136B81F819E0184410625DF804FB16
:104E10004C3D00206040002000220A490A480B7BDC
:104E200010B40133DBB2046A826163F3070263F3F7
:104E30000F220634A1F8192004620B735DF8044BAD
:104E4000704700BF604000204C3D002010B400249B
:104E5000094A0A499389086A01339BB206300862FD
:104E6000181B18BF012093811B0A937650768C6122
:104E70005DF8044B704700BF604000204C3D0020AF
:104E80004FF00002094B30B4D968094C481CD86077
:104E90000978186ADD6A61F3070261F30F2228447A
:104EA000A4F819202173186230BC70474C3D0020D3
:104EB000604000200A4A10B4D468106A34F8023BFB
:104EC0000849D460146B8B8120441C1E18BF012438
:104ED0001B0A8B764C765DF8044B1062704700BF5E
:104EE0004C3D0020604000204FF00002094B30B4E0
:104EF000D968094C481CD8600978186ADD6A61F3E2
:104F0000070261F30F222844A4F81920A174186243
:104F100030BC70474C3D0020604000200A4A10B46D
:104F2000D468106A34F8023B0849D460146B4B8291
:104F300020441C1E18BF01241B0A8B764C765DF89A
:104F4000044B1062704700BF4C3D002060400020C1
:104F50004FF00002094B30B4D968094C481CD860A6
:104F60000978186ADD6A61F3070261F30F222844A9
:104F7000A4F819202175186230BC70474C3D002000
:104F8000604000200A4A10B4D468106A34F8023B2A
:104F90000849D460146B8B8220441C1E18BF012466
:104FA0001B0A8B764C765DF8044B1062704700BF8D
:104FB0004C3D002060400020084B10B4084C1A7B88
:104FC000206A510802F0010206301A765976997665
:104FD000206219735DF8044B704700BF60400020E9
:104FE0004C3D00200C4B10B49A890C4C4FEA520CEB
:104FF000520A9A76BCF1000218BF0122187B216A7E
:1050000000F00100063118765A762162A3F80CC030
:105010005DF8044B704700BF604000204C3D00200D
:105020000B4A30B4D0680B49441CD46000780B7B29
:10503000156A03434FF00000D46A63F3070063F37B
:105040000F202C44A1F8190014620B7330BC704778
:105050004C3D0020604000200B4A10B40B49D4683E
:105060008B8934F8020B03439BB2D4601C1E18BF1B
:1050700001248B811B0A106A8B76136B4C761844C3
:105080005DF8044B106270474C3D002060400020EA
:105090000B4A0C4892F80CC0137E016A43EA4C0399
:1050A000FF2B94BF4FF0000C4FF0010CDBB2063128
:1050B000016213735376937682F818C0704700BF6D
:1050C000604000204C3D002010B4104A4FF000001A
:1050D0009189137E0E4C43EA410399B2B3F5803FA8
:1050E000B4BF00230123B1F1000C18BF4FF0010C35
:1050F00063F30700236A91816CF30F20090A91760C
:105100000633108323625DF8044B70476040002033
:105110004C3D002010B40A4A0A4C117B137E206AD1
:1051200041EA0323C3F3470301F00101063011767E
:1051300053769376206213735DF8044B704700BF7B
:10514000604000204C3D002010B40C4A0C4C91896A
:10515000137E206A41EA0343C3F34F0301F00101C8
:105160001176191E18BF012106302062180A9076A8
:1051700051765DF8044B9381704700BF604000207A
:105180004C3D00200020034A0349136A0876063389
:10519000136270474C3D00206040002004480549E0
:1051A000827A0B6A22F00802063382720B62704721
:1051B000604000204C3D002004480549827A0B6A7B
:1051C00022F00402063382720B62704760400020B6
:1051D0004C3D00200020034A0349136AC876063379
:1051E000136270474C3D00206040002000220A49B5
:1051F0000A488B7C10B4013BDBB2046A826163F322
:10520000070263F30F220634A1F8192004628B749D
:105210005DF8044B704700BF604000204C3D00200B
:1052200010B40024094A0A49538A086A013B9BB218
:1052300006300862181B18BF012053821B0A9376A0
:1052400050768C615DF8044B704700BF60400020D1
:105250004C3D002000220A490A480B7D10B4013B56
:10526000DBB2046A826163F3070263F30F22063440
:10527000A1F8192004620B755DF8044B704700BF5C
:10528000604000204C3D002010B40024094A0A4927
:10529000938A086A013B9BB206300862181B18BF4C
:1052A000012093821B0A937650768C615DF8044B43
:1052B000704700BF604000204C3D002000220A499A
:1052C0000A488B7C10B40133DBB2046A826163F359
:1052D000070263F30F220634A1F8192004628B74CD
:1052E0005DF8044B704700BF604000204C3D00203B
:1052F00010B40024094A0A49538A086A01339BB250
:1053000006300862181B18BF012053821B0A9376CF
:1053100050768C615DF8044B704700BF6040002000
:105320004C3D002000220A490A480B7D10B401338D
:10533000DBB2046A826163F3070263F30F2206346F
:10534000A1F8192004620B755DF8044B704700BF8B
:10535000604000204C3D002010B40024094A0A4956
:10536000938A086A01339BB206300862181B18BF83
:10537000012093821B0A937650768C615DF8044B72
:10538000704700BF604000204C3D0020024A136A75
:1053900006331362704700BF4C3D00200120034AD2
:1053A0000349136A08760633136270474C3D0020A8
:1053B0006040002004480549827A0B6A42F00802E6
:1053C000063382720B627047604000204C3D002023
:1053D00004480549827A0B6A42F00402063382725D
:1053E0000B627047604000204C3D00204FF00002EF
:1053F000084B10B4197B084C61F30702206A61F373
:105400000F220630A3F81920206299745DF8044B2E
:10541000704700BF604000204C3D0020084B094809
:105420009A89016AB2F1000C18BF4FF0010C0631E5
:105430000162110A5A82997683F819C0704700BF39
:10544000604000204C3D00204FF00002084B10B49B
:10545000197B084C61F30702206A61F30F220630C2
:10546000A3F81920206219755DF8044B704700BF3E
:10547000604000204C3D0020084B09489A89016A91
:10548000B2F1000C18BF4FF0010C06310162110A95
:105490009A82997683F819C0704700BF6040002057
:1054A0004C3D0020084B09489A89016AB2F1000C72
:1054B00018BF4FF0010C06310162110ADA819976AA
:1054C00083F819C0704700BF604000204C3D0020A9
:1054D0000749084B0A6A588906320A62C20548BF62
:1054E0000122B3F80CC0A3F810C048BF5A7470472B
:1054F0004C3D002060400020084B0948DA89016AD1
:10550000B2F1000C18BF4FF0010C06310162110A14
:105510009A81997683F819C0704700BF60400020D7
:105520004C3D0020084B09481A8A016AB2F1000C70
:1055300018BF4FF0010C06310162110A9A81997669
:1055400083F819C0704700BF604000204C3D002028
:105550004FF00002084B10B4197C084C61F30702AD
:10556000206A61F30F220630A3F819202062997493
:105570005DF8044B704700BF604000204C3D0020A8
:10558000084B09481A8A016AB2F1000C18BF4FF0A3
:10559000010C06310162110A5A82997683F819C00A
:1055A000704700BF604000204C3D00204FF00002DB
:1055B000084B10B4997C084C61F30702206A61F330
:1055C0000F220630A3F81920206219735DF8044BEE
:1055D000704700BF604000204C3D0020084B094848
:1055E0005A8A016AB2F1000C18BF4FF0010C063163
:1055F0000162110A9A81997683F819C0704700BF39
:10560000604000204C3D00200749084B0A6A588939
:1056100006320A62C20548BF0122B3F812C0A3F8DD
:1056200010C048BF5A7470474C3D002060400020B5
:105630004FF00002084B10B4997C084C61F307024C
:10564000206A61F30F220630A3F819202062197531
:105650005DF8044B704700BF604000204C3D0020C7
:10566000084B09485A8A016AB2F1000C18BF4FF082
:10567000010C06310162110A9A82997683F819C0E9
:10568000704700BF604000204C3D00204FF00002FA
:10569000084B10B4197D084C61F30702206A61F3CE
:1056A0000F220630A3F81920206219735DF8044B0D
:1056B000704700BF604000204C3D0020084B094867
:1056C0009A8A016AB2F1000C18BF4FF0010C063142
:1056D0000162110A9A81997683F819C0704700BF58
:1056E000604000204C3D00204FF00002084B10B4F9
:1056F000197D084C61F30702206A61F30F2206301E
:10570000A3F81920206299745DF8044B704700BF1C
:10571000604000204C3D0020084B09489A8A016AED
:10572000B2F1000C18BF4FF0010C06310162110AF2
:105730005A82997683F819C0704700BF60400020F4
:105740004C3D002010B41A4B1A4C1A7ED97ADA72EA
:10575000206A5A8901F001010630197612F480712D
:1057600020620CD000200124134942F030025C7406
:105770005A815DF8044BD8745875596070479A7A0D
:10578000D00608D59206D97459750CD50B495DF829
:10579000044B59607047940654BF094909495DF8A4
:1057A000044B5960704708495DF8044B59607047D5
:1057B000604000204C3D002094A0041094A40410EC
:1057C00094980410949C041094940410284A2DE991
:1057D000F041D168156A481CD0600978D46AC94381
:1057E000244B2C4493F81A8093F81BC0063414629F
:1057F000CAB208EA02050CEA921CD24300209E7A43
:105800001F7E93F819E001EA070402F0020231401A
:1058100064F3070042EA0E02997262F30F205C897A
:1058200065F317406CF31F6014F48072986109D01F
:105830000021114A44F030045C81D97459755A60D2
:10584000BDE8F081C80607D5DA745A758A060AD50C
:105850000A4A5A60BDE8F0818C0654BF084A094ADA
:105860005A60BDE8F081084A5A60BDE8F08100BF87
:105870004C3D00206040002094A0041094A404102B
:1058800094980410949C041094940410254A10B524
:10589000D168254B4C1CD460097893F818E001F0CE
:1058A000010C4CEA0E0C93F81BE083F818C0C1F30E
:1058B000801C4CEA0E0C987A83F81BC093F81AC02F
:1058C0008C0741EA0C0C40EA010048BF0021D46A71
:1058D00048BF5976116A987283F81AC02144B3F808
:1058E0000AC0063111621CF4807209D000210F4AEF
:1058F0004CF0300CA3F80AC0D97459755A6010BD29
:10590000C10606D5DA745A75820608D5084A5A6067
:1059100010BD800654BF074A074A5A6010BD074AA7
:105920005A6010BD4C3D00206040002094A004103F
:1059300094A4041094980410949C0410949404105B
:105940004FF00002094B10B49989094C587B49BAB1
:10595000998160F30702216A60F30F220C31A3F8EA
:10596000192021625DF8044B704700BF60400020A1
:105970004C3D002038B50E4B0E4CDA68616A32F8A7
:10598000020B0D4DDA6008441A6A196B28600A444C
:10599000C0F30720218A1A6214F038F8218A287887
:1059A000013989B214F032F8238A023B238238BDD0
:1059B0004C3D002060400020F846002008B5064B12
:1059C000198A987C4A1E1A8214F020F8034A136A36
:1059D0000633136208BD00BF604000204C3D00202C
:1059E0000B4B0C48DA6810B4418A52F8034B007B29
:1059F0002144094C21F07F41DA6021601A6BDC6A96
:105A000022441C6A22445DF8044B1A6213F0FEBF64
:105A10004C3D002060400020F84600200A4B0B4817
:105A200010B4DA68446A418A007B214432F8024BA0
:105A30002144074CDA6021601A6A1C6B22445DF82D
:105A4000044B1A6213F0E2BF4C3D0020604000207E
:105A5000F84600200A4B0B4810B4DA68446A818A81
:105A6000007B214432F8024B2144074CDA6021606C
:105A70001A6A1C6B22445DF8044B1A6213F0C6BF0D
:105A80004C3D002060400020F8460020104A4FF6B0
:105A9000FF7C51890F4B11F4807F18BF4FF0FF0C32
:105AA00010B5D968B2F812E0481CD8600978D089DE
:105AB000DC6A0144107B1A6A7144224406321A627D
:105AC000054B01EA0C01BDE81040196013F09EBFC0
:105AD000604000204C3D0020F84600200A4B10B4E6
