:020000041000EA
:10000000002008205D0100101B0100101D010010E0
:100010001101001011010010110100101101001058
:100020001901001019010010190100101F01001022
:10003000110100101901001021010010230100100E
:100040001101001011010010110100101101001028
:100050001101001011010010110100101101001018
:100060001101001011010010110100101101001008
:1000700011010010110100101101001011010010F8
:1000800011010010110100101101001011010010E8
:1000900011010010110100101101001011010010D8
:1000A00011010010110100101101001011010010C8
:1000B00011010010110100101101001011010010B8
:1000C00011010010110100101101001011010010A8
:1000D0001101001011010010110100101101001098
:1000E0001101001011010010110100101101001088
:1000F0001101001011010010110100101101001078
:100100001101001011010010110100101101001067
:10011000EFF30580103800BE00BE00BE00BE00BE7A
:1001200000BE00BEF2EB8871F033051010340510EC
:10013000A001001090A31AE7D3DEFFFF42012110B7
:10014000FF0100009C520500793512AB4FF0000012
:100150001E49086006C881F3088810474FF05040D8
:10016000006810B14FF00000F2E70DA40ECC00299A
:1001700002D000F012F8F9E71549164A002000E015
:1001800001C19142FCD11449884714498847144958
:10019000884700BEFDE701C901C29A42FBD3704700
:1001A0001034051010010020381F002038520510AF
:1001B0000000082000000820385205100010082018
:1001C0009C110820000000007047000008ED00E0CE
:1001D000381F00202C7606202D0304107D0300100C
:1001E00025030410F8B500BF064B0749C91A89104A
:1001F00048BF0131491003D0044B0BB101481847E7
:10020000704700BF381F0020381F0020000000008A
:1002100008B5054B1BB105490548AFF30080BDE8A3
:100220000840FFF7E1BF00BF000000004475062052
:1002300060E0041070B584B00C4603AB02AA01A9BB
:1002400006463DF0A1FF18B954B9204604B070BD70
:100250000546DDE9021201983DF0D4FE2C46F4E794
:10026000314601483CF02EFD60E004102DE9F043DA
:100270000446ADF51B7D2146314802AD40F080FAC1
:1002800001222146284647F0CBFB002844D12C69A7
:100290002C4821466F6940F073FA2B4B9C4277F152
:1002A00000032CD204F57F41FF310E0C360406F515
:1002B000813948464BF0CAF9DFF8A880C8F8040035
:1002C000A8B34946214801AE40F05AFA22463346C7
:1002D0002846D8F80410C8F8684047F043FF0146A4
:1002E00028460D4648F086F9019A1DB9BD4208BF5F
:1002F000A24216D02946164840F042FA07E04FF4D1
:10030000C001144840F03CFA284648F073F9002038
:100310000DF51B7DBDE8F08301460F4840F030FA33
:10032000F5E711460D4840F02BFA0120F0E7314681
:100330000B4840F025FA284648F05CF9E7E700BF93
:1003400094E00410C8E00410010060002CE10410E7
:1003500054E10410E0E00410A8E004107CE1041073
:1003600000E1041044BD00200020704700207047C9
:100370000020704701207047704700BF2DE9F04F03
:1003800091B03EF037F813203EF012F864204DF0A3
:1003900023FE3DF053FC0021BC48FFF74BFF002833
:1003A00000F0DE8140F028F908254FF4FA703DF0A6
:1003B00045FC013DF9D1B64840F062F9B54840F03E
:1003C0005FF9B54840F05CF9B24840F059F90520B2
:1003D0003DF012FE0146B14BB148A3FB0131890C3F
:1003E00040F0CEF919203CF049FC4FF001061923EA
:1003F00046EC443046EC4030AA4840F041F94FF01A
:1004000080435B68A84813F0010F0CBF2F2413240E
:10041000214640F0B5F920464DF0C6FD4BF082F97B
:10042000A24840F02DF9A24840F02AF9A149012242
:10043000A14847F04DFA014670B1A04840F0A0F93C
:10044000192446EC404064203DF0F8FB45EC404068
:1004500064203DF0F3FBF3E7994840F011F9994827
:1004600040F00EF9984842F061FD984840F008F9D4
:10047000974A1378002BFCD09648974E40F000F92D
:1004800009AC964840F0FCF80FCE0FC496E8070080
:10049000934D84E80700284609AC04E054F8040FA3
:1004A000002800F06281FFF7E1FE0028F6D08D48B9
:1004B00040F0E6F8642244F620638B4E4FF4EF37A9
:1004C000F260B36140F203424FF4AB6345F6C05CA7
:1004D00001254FF480714FF4007044F21B14C6E9FB
:1004E0000132824B824A1B68C6F84CC007FB0323CB
:1004F000804FF461C7E900337F4B7962BB607F4B6B
:10050000F563FB6086F8615086F86450386122F02C
:1005100001FD00F035FA002108462FF025F81FF004
:10052000FBFBF06C2EF0BCFD754B7648DD7040F0A7
:10053000A7F8002029F0A8F90646002800F02C8131
:10054000714840F09DF87149714840F019F9714BBC
:100550007148596D890A40F013F919234FF00002D0
:1005600042EC40306D4840F08BF804226C4B6D49F2
:10057000CDE90123009523466B4A6C4840F000F911
:100580006B4840F07DF86B4B00269B6ADFF8C4A1F6
:1005900003EB040BD846684D684C664B604A9B6A77
:1005A000A3EB0807974240F33D810026374603F549
:1005B0008248634B08F11B081B68624B1B680123D0
:1005C0004F4AD37005F034F84FF448715E482DF06F
:1005D000E5FD5B4B1A685B4B04921B68A2EB030EB4
:1005E000BEF10F0F00F2A6814FF4C86302F00F01B5
:1005F000564A03FB0121B7F57A7FC8BF002700F3F5
:10060000598145F2E47BCDE9058E4F4ADFF848C1B8
:100610004F4FDFF848910439079620E00BEBA30316
:10062000B3F5004F80F2F9801B04B2F90260F600C6
:1006300084FB06084FEAE67E6645CEEB680040F391
:10064000BA800BEBA000B0F5004F80F2E88080B2DA
:1006500004320343924541F8043F00F0C180B2F9EF
:100660000000C00084FB003EC6176045C6EB6E0369
:10067000D4DC4845D8DAC6EBEE06A6F5AF43643BBA
:1006800013F5004FD0DA4FF00043CEE790C40500D9
:1006900084E30410A4E10410D0E1041083DE1B43C2
:1006A000F0E1041008E2041020E2041030E204102B
:1006B0004CE20410DCED041068AC002060E2041091
:1006C00080E2041090E2041011010020B8E204104E
:1006D00022760620E4E2041028EF04101CE3041044
:1006E00094E1041090E40410B0850420B870062052
:1006F000A8C9002038B50020287A0520288B0420BE
:1007000054B70020B0E4041048E304106CBD00208E
:1007100064E3041044BD002074E3041088E3041073
:100720006C040100B0E30410A4E30410BCE3041063
:1007300008E4041000000B40FC7FFDFF676666665E
:100740007470062064700620609D00202033002015
:100750000000FF7FA0A30020F44902000CB6FDFFBB
:1007600001217748FFF766FD1CE6054675483FF016
:1007700087FF75483FF084FF4FF00106192446ECCF
:1007800040404FF4FA703DF059FA45EC40404FF4C8
:10079000FA703DF053FAF1E76C483FF071FF19240D
:1007A00045EC4040C8203DF049FA46EC4040C820A6
:1007B0003DF044FAF3E74E45BFF649AFCEEBE80E05
:1007C000AEF5AF40643810F5004FBFF640AF4FF4C0
:1007D000004004320343924541F8043F7FF43FAFA9
:1007E0000027DDE9058E079EBEF10F0F07D8BFF386
:1007F0005F8F049B564A01331360BFF35F8FEFB1E5
:100800000136544F3B781BB129F07CFB00233B7031
:1008100008F5824808F11B08BFE63B4605E747F6A6
:10082000FF7015E7002F7DDB7B1EB3F57A7F484B09
:100830001B68494B1B6812D20027C0E647494FF49A
:10084000EF320B683E46B3FA83F35B090B600B682B
:10085000434902FB0313434AC2E90033D1E744F2A0
:100860001B139F426ADCB7F57A6F7FF7A8AE0123AE
:10087000B34294BF012300233B4A88BF0127D370B2
:1008800098BF002704F0D4FE4FF4487137482DF08C
:1008900085FC2F4B1A68304B04921B68A2EB030EA9
:1008A000BEF10F0F48D84FF4C86302F00F01304A71
:1008B00003FB0121A1F1040C2C482E491CE0AB42A2
:1008C0002DDB84FB0392DB17C3EB62031B04B0F93F
:1008D0000220D200B2F5203F1BDAAA421CDB84FBC7
:1008E00002B9D217C2EB690292B204301A435045E2
:1008F0004CF8042F3FF478AFB0F90030DB00B3F5CB
:10090000203FDCDBB0F902200B46D200B2F5203FDD
:10091000E3DB47F6FF72E8E74FF40042E5E74FF00C
:100920000043D4E778423DF085FA134B9F6AA7EB6A
:10093000080779E711495EE61049BBE7042397E70A
:1009400060D803003CE4041058E404102CE30410C5
:10095000747006202476062064700620B870062085
:10096000A8C9002038B5002054B70020609D0020A1
:10097000203300200000FF7F00000B402097002064
:1009800008B54FF480304AF061FE034BD860003860
:1009900018BF012008BD00BFE4B6002001232DE9E7
:1009A000F047894D894F4FF480720021E8683B7011
:1009B0004CF070FC2022EC68FF21A0184CF06AFC7F
:1009C0002022FF2104F160004CF064FC2022FF2172
:1009D00004F1A0004CF05EFC2022FF2104F1E000B5
:1009E0004CF058FC4FF480722146A0184FF48064FC
:1009F0004CF0D4FEE9684FF4807201F500704CF0C1
:100A0000CDFEE9684FF4807201F540704CF0C6FEEF
:100A1000E96808194FF480724CF0C0FE4FF4807200
:100A2000E968A61888194CF0B9FE4FF48072E9689D
:100A3000B01808444CF0B2FEE96804F540704FF479
:100A4000807208444CF0AAFEE96804F580604FF417
:100A5000807208444CF0A2FEE96804F5A0604FF4EF
:100A6000807208444CF09AFEE96804F5C0604FF4C7
:100A7000807208444CF092FEE96804F5E0604FF49F
:100A8000807208444CF08AFEE96804F5006008446E
:100A90004FF4807204F510644CF080FEB4F5803F92
:100AA000E968B6D14FF0000C494C4A4B01F570484B
:100AB000296108F57C6203F14000C4F800C01E689B
:100AC0005C68166054609E68DC68103383429660F0
:100AD000D46002F11002F2D13E4B3F4A1E685C68BE
:100AE000166054609E68DC68103383429660D46060
:100AF00002F11002F2D1B8F8FE2F00230A442A6056
:100B00008022364C012081F8F120C5E907331946CF
:100B1000C4E9333323602B8585F82A30EB80A4F8B1
:100B2000D83084F8DA30C4F8D43002264FF46F435A
:100B30003F786862207104F10B002F75AB602E7155
:100B40004CF0A8FB696B264B4F00264A03F58079D1
:100B5000AF63C9B293F801A093F8028093F803E061
:100B600093F804C05F799E79DD7913F8080F1AFBBA
:100B700001FA18FB01F81EFB01FE1CFB01FC17FB30
:100B800001F716FB01F615FB01F510FB01F04B45D3
:100B900082F801A082F8028082F803E082F804C0A3
:100BA00057719671D57102F8080FD3D10027C02371
:100BB000012084F87730A7712EF030F93846BDE86F
:100BC000F0472CF0EBBD00BFE4B60020B085042058
:100BD000FFB20020F426051083B30020F8B20020F5
:100BE000F3250510A7C8002010B5164B16495A6A00
:100BF00009780132044619755A62C9B90120134BAC
:100C00001871A00707D54BF075FC830716D4104A5E
:100C10001169085D10BD4BF06DFC8107F7D54207E7
:100C20000CD504F00304012C14BFBB20AA2010BD76
:100C3000084804F0030C6044C07910BDC0F3C7003D
:100C400010BD00BFE4B60020B08504200CB4002025
:100C500044BD0020F8B2002010B4094A094B1269C3
:100C600000F0030C1154D868074C604480F8F4106D
:100C70005A6A2178013219755A625DF8044B70473F
:100C800044BD0020E4B60020B0850420F0B5140671
:100C9000074683B01FD40B060C4615D511F040064D
:100CA00001F020052CD0002D0CBF062107212EF0CD
:100CB00079FC70B144F040567F230122214638462A
:100CC00000962CF08DFC04E005212EF06BFC002832
:100CD00037D103B0F0BD012115461E462EF062FC4F
:100CE0000028F6D0082473090093384606F01F0345
:100CF000C5F3021205F00F0101942CF06BFEE8E73A
:100D00007DB109212EF04EFC0028E2D044F0804550
:100D100033464FF0FF322146384600952CF060FCF8
:100D2000D7E708212EF03EFC0028D2D044F04056F0
:100D30002B464FF0FF322146384600962CF050FCEF
:100D4000C7E7002238461146234600922CF048FCA3
:100D50002146384603B0BDE8F0402CF0DBBE00BFB2
:100D60002DE9F041914B0446D96891F8F2507F2D5E
:100D700000F28280DFE815F08D00ED00E100D40084
:100D80008000C700BB00AF008000800080008000B2
:100D90000701E6018000A1008D00ED00E100D40014
:100DA0008000C700BB00AF00800080008000800092
:100DB000080280008000A1008D00ED00E100D40059
:100DC0008000C700BB00AF00800080008000800072
:100DD000F401F6008000A1008D00ED00E100D400D8
:100DE0008000C700BB00AF00800080008000800052
:100DF000B30299028000A1008D00ED00E100D40053
:100E00008000C700BB00AF00800080008000800031
:100E10002802C6018000A1008D00ED00E100D40091
:100E20008000C700BB00AF00800080008000800011
:100E3000760180008000A1008D00ED00E100D4006B
:100E40008000C700BB00AF008000800080008000F1
:100E50002E0180008000A1008D00ED00E100D40093
:100E60008000C700BB00AF008000800080008000D1
:100E70002201D7018000A10000204D494D4A0B7886
:100E80001678107033430B702B0640F1A684BDE832
:100E9000F081494E41B2721992F90C2028092CF0C8
:100EA00041FC00204249434A0B78177810703B43BD
:100EB0000B702E44F472BDE8F08141B228092CF089
:100EC00061FD00203A493B4A0B7816781070334395
:100ED0000B70394EEDE7384E7019C77AA742E0D053
:100EE000837A427A21462809FFF7D0FED9E7324EAD
:100EF0007119CA7A8242D4D003468A7A2809097BBA
:100F0000FFF7C4FECDE72C4E701990F80BC0A44536
:100F1000C7D0037B417B22462809FFF7B7FEC0E715
:100F2000254E2809731993F80AE00EEB0427C7F33E
:100F30000D01C9002CF05EFEB3E71F4E280972199F
:100F4000137B04EB0327C7F30D01C9002CF052FEFD
:100F5000A7E7194E42B2701990F90A1028092CF02F
:100F6000E1FB9EE7144E96F83850854201D02CF0F4
:100F7000DDFC00200E490F4A0B7817782D253B43E6
:100F80000B70107095E70C4EF07DA04204D096F9DE
:100F9000271060B22CF0E8FB0023054F05493A7892
:100FA0000D780B702A433A700C2582E7E4B60020D6
:100FB0001B7606201A760620F8B2002000217C4E0F
:100FC0007C4A347813787C25234333700C467A4E60
:100FD00011706EE7030600F01F0800F15282C0F3A3
:100FE000401C8CF0010E754F0EF001002CF072FCCD
:100FF0007349FA69734851F82810C4F38016012A1E
:101000000673C7F8001500F01E83D7F8B800012852
:1010100000F02983D7F85431012B00F01E83D7F854
:10102000F001012800F03683D7F88C12012900F076
:101030002B83D7F82863012E00F02083D7F8C42330
:10104000012A00F01583D7F86034012B00F0FF82ED
:10105000594E0020564A574917780B7808703B4381
:10106000137026E710F0010040F0F381504E524D0E
:101070003178CF0700F1D082A00700F1D4814C4E27
:101080003378990700F1B182630700F1B6814848CF
:1010900090F800805FEA487700F19082200700F125
:1010A0009681434E96F800805FEA087100F16E82E7
:1010B000E30600F176813E4890F800805FEAC86759
:1010C00000F14C82A00600F15481394F97F800805E
:1010D0005FEA886100F12A82660600F13481344FAC
:1010E00097F800C05FEA4C6000F10882220640F1E8
:1010F0000A8195F90660A979002EC0F2ED8185F884
:101100006740C4E62C4E96F85850854201D02CF02A
:1011100045FB00202649274F0B783A784D2513438D
:101120000B703870C5E6002700F00F002CF0AEFB06
:101130001F4D204A2E781078177006432E707D259B
:101140001D4EB6E640B22CF099FB0023184D194F06
:1011500029783A78184E114329703B700D25A8E67E
:10116000154E96F83750854204D096F9471040B294
:101170002CF00CFB00200E490E4A0B7817782C251A
:101180003B430B70107094E60B4E96F82750854247
:1011900004D096F9170061B22CF0E6FA0020044959
:1011A000044A0B7817781C253B430B70107080E6BF
:1011B0001B7606201A760620F8B20020248604202A
:1011C00034270510C875062000283FF460AEC30719
:1011D0000CD5BE4E96F8671011F0010000F0AF82FA
:1011E000BB4F97F8008048F001033B70A7070AD572
:1011F000B64B93F86700860740F1B382B44E35785A
:1012000045F00201317065070AD5B04B93F867705D
:10121000780740F1BA82AE48067846F004020270C0
:1012200021070BD5A94B93F867805FEA087240F15C
:10123000C082A74A157845F008071770E3060AD55B
:10124000A24B93F86700C70640F15282A04E317856
:1012500041F010023270A6060BD59C4B93F867C084
:101260005FEA8C6540F15782994A157845F020076E
:10127000177060060AD5954B93F86700410640F158
:101280002482934E317841F04002327022067FF57D
:10129000FEAD8E4B93F96740002C80F201828C4AA0
:1012A000157865F07F071770F1E5884E96F848C00D
:1012B000844500F0018101274FF0000804EA070E81
:1012C000BEF1000118BF0121404608F101082CF0D1
:1012D000B9FC7900B8F1080FCFB2EFD1B9E67B4E77
:1012E00096F84750854204D096F9370061B22CF049
:1012F0004DFA00207749764A0B7817783C253B4316
:101300000B701070D5E5734B93F9006093F800C033
:10131000002EBFF6F4AE95F806E095F8678095F8D4
:1013200087706EF07F000CF07F01197008F07F026B
:1013300007F07F03A871072085F8672085F88730BC
:101340002EF062F9DBE6AF7979067FF5CFAE614921
:1013500095F857000E7827F0400326F0400220F061
:1013600040070620AB710A7085F857702CF0E6FA3A
:10137000BCE695F806805FEA88677FF5ADAE554F0D
:1013800095F85760397828F0200321F0200026F0E6
:10139000200238700520AB7185F857202CF0CEFA6A
:1013A0009AE6A879C6067FF58DAE4A4995F857604A
:1013B0000F7820F0100326F0100027F0100285F8B7
:1013C00057000420AB710A702CF0B8FA7AE6AE79B7
:1013D00032077FF56DAE3F4995F85770087826F0D3
:1013E000080320F0080227F008060320AB710A70FA
:1013F00085F857602CF0A2FA5AE6AF797E077FF5A0
:101400004DAE344995F857000E7827F0040326F0C6
:10141000040220F004070220AB710A7085F85770AF
:101420002CF08CFA3AE6AB799A077FF52DAE294875
:1014300095F85760017823F0020721F0020226F0A8
:10144000020E02700120AF7185F857E02CF076FA99
:101450001AE61E4DA879C6077FF50EAE1D4995F810
:1014600057C091F8008020F0010728F001022CF00D
:10147000010E0020AF710A7085F857E02CF05EFA7B
:10148000FAE50027114E384648F0600586F8775097
:1014900086F8877086F8677086F857702CF01AFA0D
:1014A00038462DF0BBFC0B49094A0B7810786C25A7
:1014B00003430B701770FCE40020064F044A3B788E
:1014C000157810702B433B703D25F2E4F8B20020F4
:1014D0001A7606201B760620C14895F857C0027878
:1014E00001F07F0702F07F060CF07F0E06700720E8
:1014F000AF7185F857E02CF021FA00E695F88700E7
:1015000095F806E095F8676020F040022CF0400363
:101510004EF0400126F0400806203B70A97185F886
:10152000678085F887202EF06FF8DFE595F8870053
:1015300095F806E095F8676020F0200228F0200377
:101540004EF0200126F0200C05203B70A97185F893
:1015500067C085F887202EF057F8BDE595F806E0BE
:1015600095F8677095F8876028F010034EF0100129
:10157000037027F0100C26F010020420A97185F8E2
:1015800067C085F887202EF03FF89BE595F8670047
:1015900095F806E095F8877020F0080C28F008030D
:1015A0004EF0080127F0080203203370A97185F876
:1015B00067C085F887202EF027F879E528F0040326
:1015C000AF7995F86760037095F8870047F00401DC
:1015D00020F0040226F0040C0220A97185F867C0EF
:1015E00085F887202EF010F858E523F00207A87937
:1015F00095F86780377095F8876040F0020128F011
:10160000020C26F002020120A97185F867C085F856
:1016100087202DF0F9FF37E595F8068095F867C02B
:1016200095F8873021F00107377048F001022CF05F
:10163000010E23F00106AA7185F867E085F887603E
:101640002DF0E2FF18E500202CF0AEFADDE40720D3
:10165000D7F800152CF0A8FAFAE40220D7F8001504
:101660002CF0A2FADBE4D7F800152CF09DFAD1E4B7
:101670000620D7F800152CF097FAE4E40520D7F8F7
:1016800000152CF091FAD9E40420D7F800152CF0BD
:101690008BFACEE40320D7F800152CF085FAC3E4CA
:1016A0004F4E93F806E0307893F8874000F07F05BE
:1016B0006EF07F0104F07F083570997183F88780A0
:1016C0000720BDE8F0412DF09FBF454D9F79287858
:1016D00093F8878020F0400147F0400628F0400C46
:1016E000062029709E7183F887C02DF08DFFCDE50F
:1016F0003B4D9F79287893F887E020F0100147F060
:1017000010062EF01008042029709E7183F887803F
:101710002DF07AFF9FE532489E7990F800E093F82B
:1017200087502EF0200246F02001027025F020079D
:101730000520997183F887702DF066FF99E5284A96
:10174000B779157896F887C025F0010111702CF053
:10175000010E47F00102B27186F887E02DF054FFC8
:1017600044E51F4F987997F8008093F8875040F030
:10177000020628F0020225F0020101203A709E7153
:1017800083F887102DF040FF3DE5154D93F806C016
:101790002F7893F8876027F004004CF0040128703C
:1017A00026F0040E0220997183F887E02DF02CFFBB
:1017B00036E50B4893F806C0067893F8875026F074
:1017C00008024CF00801027025F008070320997107
:1017D00083F887702DF018FF30E5024EFFF769BBE4
:1017E0001B760620F8B2002070B5454B454CDD68ED
:1017F000C30700F0010103D594F8D820002A5BD07C
:1018000010F0020C03D094F8D930002B48D010F01F
:10181000040302D094F8DA60B6B3C60684F8D81090
:10182000CCF34001C3F3800C84F8DAC048BF4FF01A
:10183000000C84F8D91048BFA5F8F4C0810644BF55
:101840004FF0000CA5F8F6C00206237940D4C3B1CE
:1018500000212D4B05F57F42C03203F14006217176
:10186000D3F800E0D3F804C09C68D9681033B342C1
:10187000C2F800E0C2F804C09460D16002F1100226
:10188000EED185F8F10070BD95F8FC20A4F8D06089
:1018900085F8FF600AB94FF48072A4F8D620BCE73F
:1018A00095F8FB20A4F8CE3085F8FE300AB94FF445
:1018B0008072A4F8D420AAE795F8FA60A4F8CC20A6
:1018C00085F8FD200EB94FF48076A4F8D26097E732
:1018D000002BD6D10D4B05F57F42C03203F1400CF1
:1018E0001E685968166051609E68D9681033634558
:1018F0009660D16002F11002F2D101232371C0E79A
:10190000E4B60020F8B2002083B30020F4260510CE
:10191000334BD86890F8F21001F07F03A3F108026E
:10192000712A3AD8DFE802F04C3D39393939393972
:1019300039393939393939394C3D39393939393900
:1019400039393939393939394C3D393939393939F0
:1019500039393939393939394C3D393939393939E0
:1019600039393939393939394C3D393939393939D0
:1019700039393939393939394C3D393939393939C0
:1019800039393939393939394C3D393939393939B0
:1019900039393939393939394C3D124A1344D87AF1
:1019A00070479C2010491B0900FB031CDCF8180041
:1019B000A0B1BCF960209CF961001043C0B270472F
:1019C0009C21094A1B0901FB032CDCF834007F2809
:1019D00003DC20EAE071C8B270477F20704700BF87
:1019E000E4B60020F8B20020248604200346B8B1F3
:1019F00080EAE072A2EBE07C81EAE170A0EBE170AA
:101A00001FFA8CF280B282420BDC1202B2FBF0FCB5
:101A10000B485FFA8CF293EA010F30F912000BD4F5
:101A200070470002B0FBF2FC054A5FFA8CF093EAC3
:101A3000010F32F91000F3D5414208B2704700BFE0
:101A400044EF0410F0B5624B6248B3F900406249BC
:101A500065426F02614AB0F900603BB2002BB1F9F8
:101A600000C0B2F900E0A6F195066EDB01275C4DDF
:101A7000DB1103F1800035F910400EFB04F035F85E
:101A8000135015FB07F73BB206FB13000EFB03FEDA
:101A900004FB06E6534CC013B4F90070F6137B4206
:101AA0005D022CB2002C77DBE3114D4D03F1800772
:101AB00035F9174001270CFB04FE35F8135015FBD0
:101AC00007F73BB25D4203FB06E70CFB05F304FBA3
:101AD0000636454C4FEAE73CB4F90030434C5F42D0
:101AE000F5137E02266034B2002C45DBE3113C4E38
:101AF00003F1800736F91740012704FB0CFE36F886
:101B0000136016FB07F31FB207FB10EE07FB0CF682
:101B100004FB0064E7139524354E953505EBC505A8
:101B20002B01B6F900504FEAEE3005FB00F004FB44
:101B300000F090FBF3FC05FB07F704FB07F7A1F8A7
:101B400000C097FBF3F11180F0BD13F5004F0CD0EE
:101B50005C4244F3C813224D03F1800035F9104074
:101B60004FF0FF370EFB04F089E7CEEB4E451C46E5
:101B70004FF0000EE8038BE714F5004F1CD07342C2
:101B800043F3C813164E03F1800E36F91E404FF092
:101B9000FF3704FB0CFEB2E714F5004F12D063428E
:101BA0000F4D43F3C81303F1800E35F91E404FF07B
:101BB000FF370CFB04FE80E7CCEB4C4300264FEADA
:101BC000C33EA5E7CCEB4C470023FF037FE700BFF4
:101BD0000A760620127606200C760620107606205D
:101BE00094F504100E76062006760620E075062091
:101BF000087606202DE9F0415B4B5C49B3F90040C3
:101C00005B4A65426E0233B25A48002BB1F900C0FC
:101C1000B0F900E0B2F9006066DB4FF00108564D04
:101C2000DB1103F1800735F9174006FB04F735F89F
:101C3000130010FB08F80FFA88F50EFB157306FB6E
:101C400005F54E4FD813B7F900305E4277023BB22C
:101C5000002B6FDB484FDB1103F1800837F8186069
:101C60004FF0010816FB0CFC04FB0E5437F8135020
:101C7000E61315FB08F70FFA87F808FB06C4404D7A
:101C8000E613B5F900703F4D7C4263021FB2002F8E
:101C90002B603FDB4FF00108374CFB1103F180074D
:101CA00034F9177007FB06F534F8134014FB08F3FA
:101CB0001BB203FB105506FB03F3334CED13B4F9D1
:101CC000006007FB003006FB05F5002DB8BFFF35AF
:101CD0002F120F80C11306FB01F10029B8BFFF319D
:101CE0000B121380BDE8F08113F5004F0CD0584261
:101CF000214D40F3C81303F1800435F914404FF02F
:101D0000FF3806FB04F792E7C6EB46461C46002563
:101D1000F30396E717F5004F1CD05B42164C43F3D4
:101D2000C81303F1800C34F91C704FF0FF3807FB27
:101D300006F5B9E713F5004F11D05B420E4F43F3A0
:101D4000C81303F1800637F816604FF0FF3816FB12
:101D50000CFC89E7C6EB46460023F503ADE7CCEB68
:101D60004C43DC038BE700BF0A7606200C76062086
:101D7000107606201276062094F504100E760620C2
:101D800006760620E07506200876062030B4224A42
:101D9000224C234D21881088224B421A1B88298807
:101DA00012B2581A03B282EAE27C83EAE370ACEB27
:101DB000E271A0EBE37C89B21FFA8CF081422280B1
:101DC0002B8011D9180290FBF1FCA5F800C0164D2C
:101DD000002A01F101012980B4BF4FF47F454FF47F
:101DE0008075258030BC7047002B10D00E4B4FEA19
:101DF000022292FBF0F100F101001880B4BF4FF411
:101E00007F434FF4807321802B8030BC7047064C99
:101E1000238030BC704700BF0A7606200C7606206F
:101E2000107606200E7606200676062047F6FF720C
:101E30002DE9F04FB24D8246686989B000F58053B4
:101E4000B3F88F9FB3F9921F9145B3F8806F28BF05
:101E500091460029B3F8924FACBF0A461446002EB3
:101E600040F000810FFA89F70197B3463746059293
:101E7000049693F8891F93F88C3F01F0F80403F05F
:101E8000F80804EBAA0E1EFB08F2002152104BF0DA
:101E900001FA6869049B00F58056B6F9830FB6F91C
:101EA000862F09FB00F90BFB02F1C9EB003B03FB9A
:101EB00010BB0598C1EB023600FB1269B8F1000FA8
:101EC00000F0CD800AEB84020AF10201079206912C
:101ED000002C00F0C4804FF0000E80237146019E5C
:101EE0005A46CC460020CDE901B9CDF80CE0B4EB60
:101EF000123F4FEA123A41D9B8EB1C3F4FEA1C3E61
:101F00003CD904FB0EABD5F814A01BF0010F0AEB73
:101F10005B0999F8009618BF4FEA191919F0010FDB
:101F200005D01AF801E043EA0E0B0AF801B019F0E7
:101F3000020F09D0D5F814B001F1010A1BF80AE02C
:101F400043EA0E0E0BF80AE019F0040F09D0D5F899
:101F500014B001F1100A1BF80AE043EA0E0E0BF868
:101F60000AE019F0080F09D0D5F814B001F11109F1
:101F70001BF809A043EA0A0E0BF809E05B0832449B
:101F800004BF80232031B4EB123FBC4400F10100B8
:101F90004FEA123B41D9B8EB1C3F4FEA1C393CD900
:101FA00004FB09BED5F814A01EF0010F0AEB5E0B6E
:101FB0009BF8009601D04FEA191919F0010F05D0CE
:101FC0001AF801E043EA0E0B0AF801B019F0020F0B
:101FD00009D0D5F814B001F1010A1BF80AE043EA70
:101FE0000E0E0BF80AE019F0040F09D0D5F814B062
:101FF00001F1100A1BF80AE043EA0E0E0BF80AE0A2
:1020000019F0080F09D0D5F814B001F111091BF827
:1020100009A043EA0A0E0BF809E05B0800F1010091
:1020200004BF8023203184423244BC447FF45FAF3C
:10203000DDE901B9069ADDF80CC01144C80658BFA5
:102040000798049A58BF091A0CF1010E059848BF69
:1020500021F01001F045934481447FF441AF09B071
:10206000BDE8F08F802E30D0B6F5807F1FFA89F75B
:1020700038D0B6F5C07F1DD0C6F308082149224EDE
:1020800031F8181036F818B001FB07FC1BFB04F9F7
:102090000BFB07F701FB04F4C9F3C0324CF3C0316A
:1020A00047F3C03744F3C0348946BB4601910492DC
:1020B0000594DEE64FF000097E4237B2BB4604923B
:1020C000CDF81490CDF80490D3E6CB460FFA89F7FB
:1020D0004FF00009644226B20496CDF81490CDF872
:1020E0000490C6E64FF0000B7F4261420FFA87F979
:1020F0000AB25F460592CDF80490CDF810B0B8E66C
:1021000044BD002094F1041094F504102DE9F04F23
:10211000DFF8788387B0D8F8143003F58050D0F812
:10212000801F21F07F4019F0EDFED8F8143093F8AD
:102130009522002A00F0CE8102EB8204471FA4F111
:102140000A05461997F80590B879019609EA000141
:10215000FF29DFF83CA3C84EDFF838B300F09C81BC
:1021600003F5805C9CF882EF40EA0E4343EA0920C5
:1021700019F0C8FE0546D8F814003A7A00F5805EDA
:102180009EF8824FFB7942EA044141EA032019F0AC
:10219000B9FED8F814402A886988AD8804F58053C0
:1021A00093F886EF93F887CF93F8909F54BA6ABA62
:1021B00093F8885F7B7A49BA00930388AAF80040B5
:1021C000AE4C31802280AE49AE4AAF4CABF80050E5
:1021D0005DBA43888088A2F800E0A4F800C0A1F8A6
:1021E000009044BA93FA93F9FFF704FDBAF900207E
:1021F000A2493032AAF80050B6F900500C80A6F877
:1022000000901402FFF7F6FCBAF90030B6F900109E
:102210009C4830359C4A30332D02038030312312E4
:1022200028121180AAF800303080FFF7AFFDBBF90B
:102230000030BAF90020002BB6F9009000F0488178
:1022400040F30A81D80759D5A4F5807CBCF5BE4F70
:102250004FD2A5F58071B1F5BE4F4AD2C5F3CF205C
:1022600001024FEAE42E01EB0E1CACEB801EC5F31D
:1022700002200EEB40011FFA81FED8F814000EF583
:10228000407C10F80C1080200291C4F3022140FA27
:1022900001F10298029120EA0100D8F814100EF220
:1022A000013E01F80C00D8F814109DF808000390C6
:1022B00011F80E00029920EA0100D8F8141001F874
:1022C0000E000098C00709D5D8F8141003980291A1
:1022D00011F80C100143029800F80C1000998907BE
:1022E00007D5D8F814C003981CF80E1008430CF852
:1022F0000E00013B14444D4400F0AE80BE46A4F5F0
:102300008077B7F5BE4F4BD2A5F5807CBCF5BE4FAC
:1023100046D2C5F3CF200102E71201EB0717A7EB66
:10232000801CC5F302200CEB40018FB207F5407012
:1023300007F20131D8F8147002903F5C8020C4F39A
:10234000022C40FA0CF027EA000C0391029F059141
:10235000D8F8141001F807C0C1B2039F0491D8F84F
:10236000141011F807C02CEA000C01F807C00099FE
:10237000C90709D5D8F814C0029804991CF8007050
:1023800002980F430CF80070009FBF0708D5D8F8DB
:1023900014000599475C049939430F460599475441
:1023A0001444A4F58070B0F5BE4F4D4403F1FF33E3
:1023B0004CD2A5F58077B7F5BE4F47D2C5F3CF20F5
:1023C0000102E71201EB0717A7EB801CC5F30220FF
:1023D0000CEB40018FB207F201310391059180218E
:1023E00007F540700290D8F814700298C4F3022CDC
:1023F0003F5C41FA0CF027EA000CD8F81410029F59
:1024000001F807C0C1B2039F0491D8F8141011F865
:1024100007C02CEA000C009801F807C0C00709D5D6
:10242000D8F814C0029904981CF801700299074367
:102430000CF80170009FB90708D5D8F814700598FA
:102440000499385C0143084605997854013B1444CB
:102450004D447FF454AF7746019CA7423AD097F899
:102460000A90F87A053709EA0001FF29D8F81430F4
:102470007FF476AE10E000BF1076062012760620BC
:10248000087606200A7606200E76062044BD002037
:102490000C76062006760620BD78FF2D08BF3D4647
:1024A00005D01EE015F8031CFF2916D12546E87853
:1024B0006C1FFF28F6D04FF47F4203F5805999F83E
:1024C00082CF42EA0C43184319F01CFD054652E640
:1024D0000123B7E607B0BDE8F08F15F8020C0A0239
:1024E000EBE7F8782A02E8E7024A136903F5C040EF
:1024F0005061704744BD002047F65E73984206D095
:1025000004494A690244A2F5C0400078704700209F
:10251000704700BF44BD002047F64F722DE9F04FD1
:10252000DFF824879142D8F814308BB00B44A3F520
:10253000C044207007D047F64770814200F0CE803B
:102540000BB0BDE8F08FD8F8146006F5805494F80D
:102550004D3F0E2B00F0DE805C2800F2A5815C2848
:10256000EED801A252F820F0672F0010BF2800100B
:10257000412500104125001041250010D7280010EA
:102580004125001041250010412500104125001073
:10259000412500104125001041250010F7280010AA
:1025A00041250010412500106D2A00104125001022
:1025B00041250010B32A001041250010F52A001013
:1025C0004125001041250010412500104125001033
:1025D0004125001041250010412500104125001023
:1025E00041250010EB2C0010412500104125001062
:1025F000172D00104125001041250010E72E001076
:1026000041250010412500104125001041250010F2
:10261000412500104125001041250010092F001010
:1026200041250010412500104125001041250010D2
:1026300041250010412500104125001041250010C2
:1026400041250010412500104125001041250010B2
:1026500041250010412500104125001041250010A2
:102660004125001041250010572E00104125001073
:102670004125001041250010412500104125001082
:102680004125001041250010412500104125001072
:102690004125001041250010412500104125001062
:1026A0004125001041250010412500104125001052
:1026B0004125001041250010B12E001041250010C9
:1026C0004125001041250010412500104125001032
:1026D0004125001041250010512C0010D8F814504D
:1026E00005F58051D1F8407FB1F8456F27F07F4064
:1026F00019F008FCC6F30C094D4401462846D8F8E9
:10270000142002F58058B8F8432F0BB0BDE8F04F05
:102710004AF028BD3F2805D8830706D1800884F8F1
:10272000800F0DE75C2800F2BF80471E5B2F3FF64D
:1027300007AF01A353F827F0BF2800104125001070
:102740004125001041250010D72800104125001018
:1027500041250010412500104125001041250010A1
:102760004125001041250010F728001041250010D8
:10277000412500106D2A0010412500104125001050
:10278000B32A001041250010F52A00104125001041
:102790004125001041250010412500104125001061
:1027A0004125001041250010412500104125001051
:1027B000EB2C00104125001041250010172D0010B2
:1027C0004125001041250010E72E00104125001082
:1027D0004125001041250010412500104125001021
:1027E0004125001041250010092F0010412500103F
:1027F0004125001041250010412500104125001001
:1028000041250010412500104125001041250010F0
:1028100041250010412500104125001041250010E0
:1028200041250010412500104125001041250010D0
:1028300041250010572E00104125001041250010A1
:1028400041250010412500104125001041250010B0
:1028500041250010412500104125001041250010A0
:102860004125001041250010412500104125001090
:102870004125001041250010412500104125001080
:1028800041250010B12E00104125001041250010F7
:102890004125001041250010412500104125001060
:1028A00041250010512C001089287FF449AE44F2D4
:1028B00036310526A4F8801F84F8826F40E64FF475
:1028C0001062002106F540704AF0E4FC0BB0BDE850
:1028D000F04FFFF71BBCB4F8831F49B14FF48036AB
:1028E000B6FBF1F2B4F8815F05FB02F2C2F30F21EF
:1028F000A4F8801F24E6B4F9809FB4F983BF09FBD4
:1029000009F10BFB0B15B4F9867FC84B002D1F8016
:1029100041F3C682B5F1804FC1F2E1804FF0005320
:1029200005F1404543F08062AA424FEA6300DCBFF4
:1029300040F08060AD1A40F08076B5424FEA600307
:10294000A4BF43F08073AD1B43F48001A9424FEA5A
:102950006302DCBF42F480026D1A42F480108542AB
:102960004FEA6203A4BF43F480132D1A43F4802678
:10297000AE424FEA6301DCBF41F48021AD1B41F45C
:102980008032AA424FEA6100DCBF40F48030AD1AC9
:1029900040F48046AE424FEA6003DCBF43F480431C
:1029A000AD1B43F48051A9424FEA6302DCBF42F4FD
:1029B00080526D1A42F48060A8424FEA6203DCBF85
:1029C00043F480632D1A43F48076AE424FEA6301EC
:1029D000DCBF41F48071AD1B41F04002AA424FEAD6
:1029E0006100DCBF40F04000AD1A40F01006AE427E
:1029F0004FEA6003DCBF43F01003AD1B43F004015A
:102A00005A10A942D8BF42F0040242F00100D8BFD8
:102A10006D1A85424FEA6206A8BF46F0010697FB91
:102A2000F6F5622305FB09F205FB0BFA03FB02F244
:102A3000DFF818E27E4F0AEB4A08CEF8005008EBA8
:102A4000481587FB050987FB0201DFF8F4C1794EC1
:102A5000E817D317C0EB691BC3EB6117ACF800B0E4
:102A6000A4F88CBF3780A4F8897F69E5B4F8805F4B
:102A7000714AC5F3080AB4F8830F32F91A606F4B34
:102A800000FB06F633F91A7046F3CF3100FB07F767
:102A900046F349554A1B161447F3CF3847F3807065
:102AA000A4F8868F84F8880FA4F8892F84F88B6F98
:102AB00046E5B4F8801F614E5F4FC1F3080BB4F8D0
:102AC000835F36F91B3037F91B2005FB03F305FB49
:102AD00002F243F3D71642F3D71042F3C75143F340
:102AE000C757A4F8890F84F88B1FA4F8866F84F861
:102AF000887F25E5B4F9833FB4F9807F03FB03F5B4
:102B000007FB07504B494E4A00280F80138041F3C2
:102B10000280B0F1804FC0F2F4874FF0005300F113
:102B2000404043F0806686424FEA6303DCBF43F0D7
:102B30008063801B43F0807787424FEA6305DCBFE8
:102B400045F08075C01B45F4800181424FEA650263
:102B5000DCBF42F48002401A42F4801686424FEAFB
:102B60006203DCBF43F48013801B43F48027874259
:102B70004FEA6305DCBF45F48025C01B45F4803176
:102B800081424FEA6502DCBF42F48032401A42F4CF
:102B9000804686424FEA6203DCBF43F48043801BD9
:102BA00043F4805787424FEA6305DCBF45F4805504
:102BB000C01B45F4806181424FEA6502DCBF42F4EC
:102BC0008062401A42F4807686424FEA6203DCBF9C
:102BD00043F48073801B43F0400787424FEA63054C
:102BE000DCBF45F04005C01B45F010016A10814272
:102BF000DCBF42F01002401A42F004065310864235
:102C0000DCBF43F00403801B43F001075D10B842B2
:102C1000A8BF45F001050FFA85F91FFA85FC0948A0
:102C2000A4F880CFA0F800908AE400BF00760620C8
:102C30001F85EB510276062094F5041094F10410E0
:102C400004760620FE75062044BD0020E0750620AF
:102C50000025D54B3570C3F10102D8F8140003F1FB
:102C60002F0913F8014F4470D118D8F8146013F8E5
:102C7000017F77545D78D8F81440D01825549E7899
:102C8000D8F81470591C50183E54DD78D8F8144008
:102C90009F1C1744E5551E79D8F81400D91C11441F
:102CA00046545F79D8F814501C1D14442F559E7952
:102CB000D8F81400591D11444654DF79D8F814503F
:102CC0009C1D14442F551E7AD8F81400D91D1144A8
:102CD000465403F1080C13F8095FD8F814709444B3
:102CE000994507F80C50C5D12AE4B4F9801FAF4FBD
:102CF000B4F9830FAE4D39802880002940F0108749
:102D00000028CCBF80224FF4C0729046A94E32807A
:102D1000A4F8868F14E4B4F88CAFA749CAF3080965
:102D2000B4F88F2F31F91950C2F30807002D00F0C5
:102D3000E086A24B33F91900020492FBF5FB31F94E
:102D40001730002B00F0D9869C4931F917703D04EB
:102D500095FBF3FA4FF4006CB4F8832FB4F8894F65
:102D600040F6E100131B61461BB26EE006F580578A
:102D70000BFB03F5B7F8802FB7F886EFB7F8939FF2
:102D8000AEEB020C0CEB25470AFB03F5F144A9EB73
:102D900002040FFA87FE04EB2542BEF1000F14B2C5
:102DA000BFB2C0F26B86BEF1FF0F24EAE47500F3F8
:102DB0007986FF2DA8BFFF25FFB25FFA85F977540A
:102DC000D8F8146001330E440131814286F8009135
:102DD0001BB23FF4B5AB002BD8F81440C0F24A86C2
:102DE00004F580550BFB03F7B5F886CFB5F880EFF7
:102DF000B5F8932FACEB0E0909EB27460AFB03F756
:102E00006244A2EB0E0505EB274C35B2002D0FFAFC
:102E10008CF21FFA86F9C0F23C86FF2D22EAE27E90
:102E200040F34786FF2AC8BFFE224FF0FF06D8BFF7
:102E30005FFA8EF26654D8F8144001330C4484F8DB
:102E40000021D8F814601BB20131002B8EDA4FF04C
:102E500000090127B3E74FF0000806F1FF3A06F238
:102E6000FF799AF801C09AF802609AF80370E0447A
:102E700016FA88F59AF8041017FA85F09AF8058082
:102E800011FA80FB9AF806609AF8077018FA8BF32B
:102E90001AF8082F16FA83F117FA81F512FA85F05D
:102EA000D1451FFA80F8DCD1A4F8808FFFF748BB2A
:102EB000D4F8802F42F3170842F3C053A8FB087BD5
:102EC00008FB03F6390E0BEB4605380C41EA0523E7
:102ED0002A12A4F8837F84F8850FA4F8863F84F82B
:102EE000882FFFF72DBBD4F8805FD4F8831F25F01F
:102EF0007F4721F07F4307FB03F31814A4F8803FBA
:102F000084F8820FFFF71CBBB4F8817FB4F887AF59
:102F10002B4E2C4BB4F884EF94F8899F2A4894F8F0
:102F20008ACF94F88BBF3780A3F800A0274D28499B
:102F3000284BB4F8904F284FA0F800C0A5F800E047
:102F4000A1F80090A7F800B01C80FEF753FED8F857
:102F5000140036882A8800F58058A8F8806FA8F8F1
:102F6000832FFFF7EDBA0C2B3FF6EAAA01A252F825
:102F700023F000BF1138001041250010412500103A
:102F8000ED37001041250010773500104125001065
:102F90006B350010CD280010412500104125001090
:102FA000E5320010DD2F001094F90410027606209F
:102FB00004760620FC75062094F1041094F50410A4
:102FC0000C760620127606200E7606201076062055
:102FD0000A7606200876062006760620334643F653
:102FE0003F7C94F883EFBD4C06F500755034019595
:102FF0004CF2C0074FF6F079764496F9000B1FFAB1
:1030000080FAA9EB0A010AB2002A80F26285D6434F
:10301000B34DCAF118000FFA80FB0BEAEB71B5F85B
:1030200002B00E4433F80B0002350CEA000023F81E
:103030000B00501C00B2884206F0030645DA0FFA76
:1030400086FBF6B1BBF1010F16D0BBF1020F09D020
:1030500035F802BF013033F80B6000B20CEA060607
:1030600023F80B6035F802BF013033F80B6000B273
:103070000CEA060623F80B60013035F802BF00B2F7
:103080001BE0B5F802B0043033F80B6000B20CEA74
:10309000060623F80B60B5F804B033F80B600CEAB1
:1030A000060623F80B60B5F806B033F80B600CEA9F
:1030B000060623F80B6035F808BF33F80B6088422A
:1030C0000CEA060623F80B60DBDB8A420AEB0102FE
:1030D00002F10F0295B2B4BF2946002105F10100AB
:1030E000A8BF0120CAF57F4A0AF1F1063144282819
:1030F0000AB21ED0794D27F0FF0A05EB400030F8E8
:10310000025B072A595B0CEA010100F3A98402263D
:103110004FF4206B12FB06BBD8F81460013236F86E
:103120000B60844206EA070641EA060112B25953CF
:10313000E5D14CF2C00AB80185B24FEA8C1145EADC
:1031400097078EB20EF10102574546EA9C0C02F039
:103150007F0ED8F814607FF44FAF4FF42169D8F890
:103160001420724492F9000B1FFA80FACAF57F45C9
:10317000F0352AB2002A80F2AF84D643584DCAF106
:10318000180B68880FFA8BF1103033F800B001EAA1
:10319000E1710CEA0B0B23F800B0501C00B20E4496
:1031A000884205F1020506F0030648DA0FFA86FBAD
:1031B00006B3BBF1010F18D0BBF1020F0AD035F8EE
:1031C000026F0130103633F806B000B20CEA0B0B78
:1031D00023F806B035F8026F0130103633F806B028
:1031E00000B20CEA0B0B23F806B0013035F8026F81
:1031F00000B21BE06E880430103633F806B000B21F
:103200000CEA0B0B23F806B0AE88103633F806B084
:103210000CEA0B0B23F806B0EE88103633F806B034
:103220000CEA0B0B23F806B035F8086F103633F8AC
:1032300006B088420CEA0B0B23F806B0DADB8A42B0
:103240000AEB010202F10F0295B2B4BF2946002138
:1032500005F10106A8BF0126CAF57F4A0AF1F1006F
:103260000144282E0AB21FD01C4D27F0FF0A05EB9F
:10327000460535F8020B072A00F11000195A0CEA2E
:10328000010100F3E4834FF0020B12FB0B9BD8F813
:103290001460013236F80B60AC4206EA070641EAD8
:1032A000060112B21952E4D14CF2C00ABD01A8B213
:1032B0004FEA8C1140EA97070EF101028EB2574592
:1032C00002F07F0E46EA9C0C7FF449AF019A20334E
:1032D0009A423FF435A9D8F8146089E644F1041005
:1032E00042F1041094F88C5F94F889BFB4F9801F00
:1032F0001BFB05F3B4F9867F5A08B4F9833F080233
:10330000B4F98F4F01FB17091902304603FB141A59
:1033100000210195099406F5C06649F0BBFF002D18
:103320003FF40EA9BBF1000F3FF40AA90022CDE93A
:1033300004924FEA1A294FEADA250BFB05F30BFB3F
:1033400009F409F007001BF0010F0393049A4FF0F2
:103350000003069407904CD0BBEB122F11469C46FD
:103360004FEA12253BD9019A914538D20BFB09F35C
:103370002B44B3F5005F32D28020CA0A039905F0CE
:10338000070440FA04F501EBC20409F0070000EB62
:1033900044023078EBB2C4074FEA420106D5D8F8B0
:1033A000145015F812401C4305F81240850705D546
:1033B000D8F814504C1C2A5D1A432A55440706D5E8
:1033C000D8F8145001F110042A5D1A432A55000759
:1033D00005D5D8F814001131455C1D434554BCF1A6
:1033E000000F00D001360123049A5B453A4400F0F7
:1033F000B180CDF820A0BBEB122F4FEA122103F0D1
:10340000010049D9019CA14546D2069D0D44B5F560
:10341000005F41D296F800C008B14FEA1C1C01F0D1
:10342000070A8021039D41FA0AF4E1B2D40A05EBB0
:10343000C40A079C1CF0010F04EB4A044FEA440540
:1034400007D0D8F814A01AF814E041EA0E0E0AF8D2
:1034500014E01CF0020F08D0D8F814A005F1010EFA
:103460001AF80E400C430AF80E401CF0040F08D066
:10347000D8F814A005F1100E1AF80E400C430AF803
:103480000E401CF0080F07D0D8F81440113514F87E
:1034900005C041EA0C01615500B101363A440133DF
:1034A000BBEB122F4FEA122103F0010049D9019D15
:1034B000A94546D2069C0C44B4F5005F41D235784C
:1034C00000B12D0901F0070A802141FA0AF4E1B2A6
:1034D00002910399D40A01EBC40C079CE90704EBA1
:1034E0004C044FEA440C08D5D8F814A002991AF8F5
:1034F00014E041EA0E0E0AF814E0A90709D5D8F83D
:1035000014A00CF1010E1AF80E4002990C430AF8AF
:103510000E406C0709D5D8F814A00CF1100E1AF85B
:103520000E4002990C430AF80E40290709D5D8F835
:1035300014500CF1110C15F80C4002990C4305F8CD
:103540000C4000B1013601335B453A447FF453AF80
:10355000DDF820A0059B01980133099A8342059369
:1035600092447FF4E6AEFEF7EBBF40200BB0BDE81F
:10357000F04FFEF75BBC94F8837F94F889BF9C4DB5
:103580009C4B94F8861F9C4894F88C9F2F80A3F83E
:1035900000B09A4FB4F880BF3980A0F80090BBF11A
:1035A000000F00F0CC801BF00301DFF85CA2DFF815
:1035B0005C92934C0BF1FF3258D0012938D002298C
:1035C0001BD0B6F801E00192AAF800E0B6F805C0F9
:1035D0001036A9F800C036F807BCA4F800B0FEF712
:1035E00031FA019BBAF800009B46803026F80F0C98
:1035F000B9F80020503226F80B2CB6F801100BF168
:10360000FF3BAAF80010B6F805E01036A9F800E074
:1036100036F807CCA4F800C0FEF714FABAF8003068
:10362000803326F80F3CB9F80000503026F80B0C18
:10363000B6F801201036AAF8002036F80B1CA9F8BD
:10364000001036F807ECA4F800E0FEF7FBF9BAF832
:103650000030BBF1010B03F1800326F80F3CB9F8F1
:10366000000000F1500026F80B0C68D05946B6F85F
:1036700001200191AAF80020B6F80510A9F8001061
:10368000B6F809C0A4F800C0FEF7DCF9BAF80030BB
:10369000B6F811208033A6F80130B9F80000503098
:1036A000A6F80500AAF80020B6F81510A9F8001031
:1036B000B6F819B0A4F800B0FEF7C4F9BAF80030B3
:1036C000B6F821208033A6F81130B9F80000503048
:1036D000A6F81500AAF80020B6F82510A9F80010E1
:1036E000B6F829B0A4F800B0FEF7ACF9BAF800308B
:1036F000B6F831208033A6F82130B9F800005030F8
:10370000A6F82500AAF80020B6F83510A9F8001090
:10371000B6F839B0A4F800B0B346FEF793F9BAF89A
:103720000000019A8030A6F83100B9F80030111F6E
:1037300003F1500306F14006ABF8353097D140262F
:10374000D8F814402F48B4F8009BC4F80006C4F819
:103750000806A4F80566A4F80D66B9F1000F3EF45A
:10376000EFAE2346DFF8A0B0DFF8A0A004F60436E1
:1037700013E0A4F80006BBF80020B9F10109A4F891
:103780000226BAF8001006F10206A4F8051604F1A4
:1037900008043EF4D5AED8F8143016F8022C03EB2A
:1037A000021EBEF801C0ABF800C016F8021C03EB05
:1037B0000110B0F80520AAF8002016F801EC03EB80
:1037C0000E1CBCF80110298016F8010C03EB001345
:1037D000B3F805203A80FEF7D9FA06490123B1F97A
:1037E00000000028C5D1A4F80036C4E70020BDE6DB
:1037F0000A76062006760620087606200E76062033
:1038000012760620170060000C760620107606203F
:1038100096F8265606F2FD1706EB850CBC453ED2FF
:1038200006F5FE70A0EB0C0B06F2F5142BF003026C
:10383000A51A06F2F913591B0F1FBC08013414F026
:1038400007024FF0E0001CD0012A16D0022A12D045
:10385000032A0ED0042A0AD0052A06D0062A02D04E
:10386000187106F2F5131871043B1871043B1871B6
:10387000043B1871043B1871043B1871043BAB42C4
:103880000DD09A461871203B0AF80409AB428AF819
:10389000000018761875187418731872F1D1D8F8DA
:1038A000142092F82066002E3EF44AAE92F8267656
:1038B000B2F8215607F0030304955D0002EB970967
:1038C000C7F1800B334630212E466746B2F82306F7
:1038D00009F5007905905FFA8BFA9B46002B00F002
:1038E000888102F50C74BAF1000F00F082811BF0A0
:1038F00007020BF1FF3C53D0012A44D0022A38D0F2
:10390000032A2CD0042A20D0052A14D0062A08D055
:1039100014F80C5C05F03000884200F01C81E3468E
:10392000103414F80C5C05F030038B4200F0138166
:103930000BF1FF3B103414F80C5C05F030028A42A6
:1039400000F009810BF1FF3B103414F80C5C05F01A
:103950003000884200F0FF800BF1FF3B103414F878
:103960000C5C05F0300C8C4500F0F5800BF1FF3B52
:10397000103414F80C5C05F030038B4200F0EB803F
:103980000BF1FF3B103414F80C5C05F030028A4256
:1039900000F0E180BBF1010B04F1100400F029817B
:1039A00014F80C5C05F03000884200F0D4802579D2
:1039B000103405F030020BF1FF3B8A42DC4623460F
:1039C00000F0C9802579103405F0300088420BF1F1
:1039D000FF3B00F0C0801D7DACF1020B05F0300212
:1039E0008A4203F1200400F0B68093F82450ACF131
:1039F000030B05F03000884203F1300400F0AB8087
:103A000093F83450ACF1040B05F030028A4203F114
:103A1000400400F0A08093F84450ACF1050B05F091
:103A20003000884203F1500400F0958093F8545020
:103A3000ACF1060B05F030028A4203F1600400F09D
:103A40008A80BCF1070B03F17004A9D1D1E041EAEF
:103A50000A060132AC421E5212B27FF40AAC23E4D1
:103A600041EA0A06013284425E5312B27FF447AB48
:103A7000FFF75FBB00220126FFF7DCB9002CFFF641
:103A8000E6A9FF2CA8BFFF2400275FFA84F9FFF7FF
:103A900096B9002AEEDBFF2AA8BFFF220026D2B289
:103AA000FFF7C8B9FF2C0FDCFF275FFA85F9FFF796
:103AB00086B9BEF1FF0FA8BF4FF0FF0E5FFA89F67F
:103AC0005FFA8EF2FFF7B6B94FF0FE09FF27FFF756
:103AD00076B90020FFF70EBB0026FFF7C5BBB5F196
:103AE000805FAABF4FF08053002305F17045FEF7B9
:103AF00019BF4FF0004BFFF722B94FF0004AFFF714
:103B000029B9B0F1805FAABF4FF08053002300F1C4
:103B10007040FFF706B84FF0000CE146FFF77FB8A2
:103B2000FDF764FFB7F9001000EBD07B4BF34F0AB1
:103B30000029B8BF0AF5807AD8F81420AB48B8BF7E
:103B40000FFA8AFACAF3080404801FFA84F802F50F
:103B50008054FFF7DDB8049B069134F8101CC81A96
:103B600034F80E1C059B82B2C81A019254F8091C45
:103B700082B214F80A3C029214F80B2C21F07F4018
:103B80001D43039218F0BEF9027803460699002AF5
:103B900039D10320134600FA06FE0198029A60F319
:103BA000070362F30F23039A043762F3174365F3A5
:103BB0001F6347F8043C99F8005025EA0E03C50539
:103BC0005DBF0222B240134343EA0E030236D8B26D
:103BD0000AF1FF3216F0060689F800005FFA82FA51
:103BE00008BF09F10109BBF1010B04F110047FF4D6
:103BF0007AAE103911F1100F3EF4A2ACD8F81420AF
:103C000092F8203669E668B215F0400F069003F18D
:103C1000050340F0CE800028069568DB019813F973
:103C200003CC84441FFA8CFC0CF11005A8B2B0F54B
:103C3000907F6DD9013AD6D00433EFE713F8045CD6
:103C400013F9020C15F0200F14BF4FF0100E4FF0B7
:103C5000080E029D1EFA80F0281A85B205F11000A8
:103C60001FFA80FEBEF1F00F4DD87D7087F800C0BE
:103C700013F8010C039D1CF4807F2844B87013F8DE
:103C800004EC069D2EF03F004FF0030E80EA050085
:103C9000F87099F800000EFA06FE20EA0E0005D032
:103CA0004FF0010C0CFA06F52843C0B289F8000069
:103CB00013F8045C15F0200F06D04FF0020C0CFA3C
:103CC00006F5284389F8000002360AF1FF3516F0A0
:103CD000060607F104075FFA85FA01D109F1010927
:103CE000013A80D00433BAF1000F3FF47CAF019861
:103CF00013F903CC84441FFA8CFC0CF11005A8B214
:103D0000B0F5907F9AD9013A3FF46DAF0433EEE7F6
:103D1000029D13F902ECAE441FFA8EF000F110057B
:103D20001FFA85FEBEF1F00F84D8787087F800C0C6
:103D300013F8010C039D1CF4807F2844B87013F81D
:103D400004EC069D2EF03F004FF0030E80EA0500C4
:103D5000F87099F800000EFA06FE20EA0E0005D071
:103D60004FF0010C0CFA06F52843C0B289F80000A8
:103D700013F8045C15F0200F06D04FF0020C0CFA7B
:103D800006F5284389F80000023616F006060AF107
:103D9000FF3508BF09F10109013A07F104075FFA8D
:103DA00085FA3FF420AF0433BAF1000F7FF436AF49
:103DB00019E7079513F8040C13F9035C10F0200FB2
:103DC0000CBF0820102010FA85FC019DA5EB0C0506
:103DD0001FFA85FC0CF110051FFA85FEBEF5907FD9
:103DE00006D9013A3FF4FFAE0433E3E7FC75062041
:103DF000069D13F902EC002DBCBF70444042029DA9
:103E0000ACBF1FFA8EF080B2284480B200F11005DA
:103E10001FFA85FEBEF1F00FE3D8787087F800C076
:103E200013F8010C039D1CF4807F2844B87013F82C
:103E300004EC079D2EF03F004FF0030E80EA0500D2
:103E4000F87099F800000EFA06FE20EA0E0005D080
:103E50004FF0010C0CFA06F52843C0B289F80000B7
:103E600013F8045C15F0200F06D04FF0020C0CFA8A
:103E700006F5284389F80000023616F006060AF116
:103E8000FF3508BF09F10109013A07F104075FFA9C
:103E900085FA3FF4A8AE0433BAF1000F8AD1A2E646
:103EA000FFDE00BF00680B68C01A704700680B682F
:103EB000C01A704742F22E132DE9F04F42F22C1A2D
:103EC000A7B0AC4CDFF8BCB2009342F22C11002238
:103ED0008A45DFF8B482DBF8100004F11406626151
:103EE00000F08F8000F5005595F8307107F0300331
:103EF000302B00F02C86002B00F0DE80A3F11003A5
:103F0000B3FA83F29C4F550917F8063C3A78002B18
:103F100000F08D80A7F10C000527984B817C93F869
:103F2000A6EA93F8A7CAD9B90CF101017346CDE905
:103F30000AE1002A46D1002D00F0D983994280F091
:103F40002E8600224FF48070B261C6F8A8000120CE
:103F5000052F306040F04681042708F1FF38AEE0BD
:103F6000E64527D8BEF1000F00F0EC824FF00009C3
:103F7000BCF1FF0F7146CDE90A9E00F08E8402234A
:103F800001210DF1980E0EEBC1090CF1010C49F85D
:103F900070CC4FF4807C49F86CCCA2B9002D00F0B5
:103FA000AE85012B0B9901F0AD800C98B161C6F87C
:103FB000A800CCE700214FF48079CDE90A19002A46
:103FC00000F06B830123027E002A40F0C0816B4920
:103FD00091F8A92A91F8A81A0132059204914FF09C
:103FE00001090822CDF80490007880F0010CBCF1A2
:103FF000030F00F28883DFE81CF0AC02FC02C5016D
:10400000C30100F5005999F8301101F0C000C02833
:104010002CD03F2950D9A0F14000B0FA80F5564F7E
:104020006D0917F8063C3A78002B7FF473AF002A2D
:1040300092D0397BA7F10C000527002900F0B98048
:104040004E4B93F8A82A93F8A91A8A4240F2538259
:1040500000224FF48071CDE90421002D00F05D8530
:1040600001210023B161C6F8A830B6E0012144481F
:10407000C0F82024C0F82424C0F82824C0F82C2438
:10408000C0F83024C0F83424C0F87813C0F8901376
:10409000C0F87C13C0F89413C0F88013C0F89813CC
:1040A000C0F88413C0F89C13C0F88813C0F8A0139C
:1040B000C0F88C13C0F8A4130427DFF8D0800021C7
:1040C000DBF81020009D46F8041D505D12F80A3000
:1040D000656903403B4103F00102002D58D0002ADE
:1040E00040F0F0803560E26A012DB261D4F8BC3056
:1040F000C6F8A83028D0616C022D3163D4F8D40002
:10410000C6F8C00020D0E26D032DB264D4F8EC30C4
:10411000C6F8D83018D0616F042D3166D4F8040188
:10412000C6F8F00010D0D4F88C20052DB267D4F872
:104130001C31C6F8083107D0D4F8A450C6F8905006
:10414000D4F83411C6F82011013F7B1C08F1FF3868
:10415000B5D142F22E1700980AF101060130BE4295
:1041600042F22D1A04F59C7400907FF4AEAE27B095
:10417000BDE8F08FCCBA00208DC80020CCBD002057
:1041800054B7002044BD002081C8002080C8002012
:10419000002AD9D098F80630404698F80C20002B19
:1041A0007FF4BBAE002ACFD0017E1D4600297FF4EC
:1041B00047AF724991F8A92A91F8A83A0132CDE99E
:1041C0000432002D00F0AA84934240F26D82002553
:1041D0004FF48072B561C6F8A82001213160052F27
:1041E0003FF4BAAE6569002DAED0316800293FF4C6
:1041F00079AF01EB410E07EB4E033146B64604EBB7
:1042000083093CE0D1F8A8609E4246D8012D2ED00B
:10421000636C9A4261D2D1F8A8609E4267D8022DA1
:1042200025D0E36D9A4264D2D1F8A8609E426AD844
:10423000032D1CD0636F9A4267D2D1F8A8609E42CA
:104240006DD8042D13D0D4F88C309A4269D2D1F8AD
:10425000A8609E426FD8052D09D0D4F8A4309A42A8
:104260006BD3D4F8340182426ED39A4265D00122D6
:1042700000208A61C1F8A8001831894520D08A69D8
:10428000E36A9A42BED3D4F8BC0082425CD39A421D
:10429000BCD1D1F8A8609E42B8D9002000EB400004
:1042A00004EBC00CDCF8BC009A4238BF1A46B0429E
:1042B00028BF30468A61C1F8A80018318945DED18F
:1042C000764641E798F80630404698F80C20002BD7
:1042D00051D1002A7FF468AF85E7D4F8D400824238
:1042E00032D39A429BD1D1F8A8609E4297D901203F
:1042F000D4E7D4F8EC00824226D39A4298D1D1F880
:10430000A8609E4294D90220C8E7D4F804018242F2
:104310001AD39A4295D1D1F8A8609E4291D9032030
:10432000BCE7D4F81C0182420ED39A4293D1D1F853
:10433000A8609E428FD90420B0E7D1F8A860B342AC
:1043400038BF052093D2A9E7D1F8A860ACE70B49A4
:1043500091F8A82A91F8A91A8A4200F2EC80002A62
:1043600040F0D381FF2900F01D85013104914FF405
:104370008071059133E60D46CFE500BFCCBD00202E
:1043800085F00105012B00F05483019A012A40F0C9
:10439000CF81DDE9040E864500F2CA81DA000AA960
:1043A0001AA89946019349F0F9F9019B002D00F0F4
:1043B0004082DDE91A218A4280F00483B9F1010FBD
:1043C00000F0FD801D9B1C98984280F0B383B9F1EA
:1043D000020F39D0DDE91E539D42C0F0C582B9F10C
:1043E000030F00F09486DDE920C294454FF00203EC
:1043F000C0F06183B9F1040F00F0CE82DDE922152F
:10440000A94280F01B8426A800EBC305A5F1300C5F
:1044100022AAB9F1050FD2E9000103F10105CCE9A7
:10442000000100F00F85DDE92409484580F00A8588
:104430000DF1980E0EEBC501A1F1300C5EE9020101
:10444000CCE9000103F10209B84B082249461AA839
:1044500047F076FA1A9B002B00F04C8400221C993E
:104460001B9D01330131B9F1020FB261C6F8A830CA
:10447000C6F8C010356309F1FF3200F067851E9B56
:104480001D990133022AC6F8D830B16400F04D8579
:1044900020981F9D07F1120E04EB8E090130032AAC
:1044A000C9F81850C9F8A80000F00E86229B21997F
:1044B00004EB870C581C042ACCF87810CCF80801BF
:1044C00000F04D85249A2399551C259A07F11E0E5C
:1044D00004EB8E09FF2AC9F81810C9F8A85000F299
:1044E00049854FF4807504EB870C0723CCF8A8208E
:1044F000CCF8385101E1002A00F00E810023FF2999
:10450000CDE9043200F067840131CAB24FF4807102
:1045100006920791002B40F006830223059A002D96
:1045200000F04182012B00F04B82069BB261013307
:10453000C6F8A83051E64FF000094FF4807CCDE971
:10454000049C4CE5BCF1FF0F00F0C78071460123CD
:1045500017E5012B00F0B681DDE90491019A012AEB
:1045600000F039830A9A0B984A4528BF4A4681428F
:1045700038BF0146069B0C988C46984228BF1846C7
:104580000D99079BCDE91A2C8B4238BF0B4682420E
:10459000CDE91C0380F06C83844540F22C84824278
:1045A00028BF02469C4538BF9C46CDE91A2C002DF9
:1045B00000F09983DDE91A21914240F23382002A0A
:1045C00000F0988200230132FF29C6F8A820B361C9
:1045D00000F2928002230122524202F00609B944FD
:1045E00004EB890CCCF818104FF48071CCF8A810AB
:1045F00083E0012B00F09581DDE90430019A012A66
:1046000000F00483DDE90A1201920C9A99420292A9
:104610000D9A8E460392019A38BF9E46824228BF69
:104620000246DDF818C01B92029ADDF81C909445F2
:10463000CDF868E0E64638BF9646039ACDF870E0BC
:104640004A4528BF4A46614596461D92C0F02483DC
:104650004945C0F02583614500F01E8302999942C7
:1046600080F0C383039A9A4240F2C583029999422B
:1046700038BF1946039B834228BF03461846CDE93D
:104680001E13002D00F018834FF003091D9BDDE978
:104690001A218A42FFF497AE98E145B30123002521
:1046A000B361C6F8A85052E4002B00F0DC8200256C
:1046B000FF2AC6F8A830B5613FF68FAD022101236D
:1046C0005B4203F00609B94404EB890CCCF81820CE
:1046D0004FF48072CCF8A82080E50123CDF82CE0BF
:1046E0000A93002A7FF46EAC002D7FF42AAC0A9D59
:1046F0000B99B561C6F8A810012333606FE5B9F1D5
:10470000000F7FF456AE0023F7E705920022FF2941
:1047100004927FF4F9AE62E4FF2900F03C834FF489
:1047200080730131059304910123F7E6AD3E00103B
:1047300000230B9A0A9985F001051292019A0D98AF
:10474000029510930C9D049B11910599022A4FF03C
:104750000509149013951593169105D10DF15C0C74
:10476000DDE906E1CCE900E14FF480720198411ED9
:1047700009EB41030DEB830CDD1CCCF84820BF4B4B
:104780000422294610A847F0DBF8002399460DF1D2
:10479000980E0EEB83000DEB830250F8580C526C10
:1047A000904200F0FB800DF1980C0CEBC90E4EF816
:1047B000300C981C854240F25B810DEB800CDCF8DC
:1047C00040C0624540F001820DEB8302D06C1A1D9F
:1047D000954240F248810DEB820CDCF840C0604508
:1047E00040F04E810DEB8302506D9A1D954240F2D0
:1047F0003A810DEB820CDCF840C0604540F040810E
:104800000DEB830108339D42CA6D40F23181189B44
:104810009A4240F0E482199D09F101094EF82C5C9E
:10482000029900297FF46BAF4B46B9F1000F3FF4BA
:104830006AAF1A9A1B9DB9F1010FB261C6F8A85070
:104840003FF45BAF1C991D9AB9F1020F3163C6F8B2
:10485000C0203FF452AF1E9D1F99B9F1030FB564FC
:10486000C6F8D8103FF449AF209A219DB9F1040F42
:104870003266C6F8F0503FF440AF2299239AB9F15E
:10488000050FB167C6F808213FF437AF249D25997D
:10489000C6F89050C6F820112FE7002A7FF492AB9B
:1048A000002D3FF424AF0120534203F00609B94420
:1048B00004EB890CCCF818104FF48071CCF8A810D8
:1048C000FFF746BBDDE90A13994280F07581019834
:1048D000049A012800F04582914280F0F1829342CF
:1048E00000F2F883069A914280F0D182934200F25E
:1048F000EF830DF1680904A90DF1700C0DF1280E7C
:104900001EAB06AA03C989E803009EE803008CE8F1
:10491000030092E8030083E80300002D7FF4B4AEA7
:10492000CAE1DDE90A01884280F0D781DDE9049C13
:10493000019B012B00F08A82069A8145079B38BFB4
:1049400081468C4528BF8C46824238BF02468B4246
:1049500028BF0B46CDE91A9C1C921D93002D00F038
:1049600090814FF0020992E6B9F1030F3FF46CAD6C
:10497000DDE920139942C0F01A82B9F1040F00F06A
:10498000CA83DDE9225CAC454FF003033FF63BAD43
:10499000B9F1050F40F05681994655E502339D4225
:1049A0003FF6F5AE3CE7049D022BC6F8A820B561A2
:1049B0007FF4A2AE069A07993263C6F8C0109CE64F
:1049C000049B01E4B9F1010F2CD01D9B1C9A9A4263
:1049D0000CD3B9F1020F25D0DDE91EC3634500F207
:1049E0002C82B9F1030F1DD0002311E01AAD1CA8D1
:1049F000B9F1020FD0E90001C5E9000100F01F8202
:104A0000DDE91E12914241D3B9F1030F6DD00123AC
:104A1000DDE920518D424ED3B9F1040F7FF4EEACA5
:104A2000002B5FD100214FF48073B161C6F8A8302C
:104A300062E6DDE90AE0864580F0BE800199012941
:104A400040F0EB81DDE904129142BFF4A7AC0023F2
:104A500085F001054FF00309CDE911E0CDE913120E
:104A60000295109380E64EF82C0C09F10109D7E667
:104A70004EF82C2C09F10109D2E600BFA53E00102A
:104A800013464EF82C0C09F1010980E6012326A8F3
:104A900000EBC302A2F1300C1EADB9F1030FD5E952
:104AA000000103F10103CCE900011BD0DDE9202165
:104AB000914240F2BE8026A800EBC30CACF130025C
:104AC00020A9B9F1040F03C903F1010382E803002F
:104AD00008D0DDE92252AA423FF695ACB9F1050FA4
:104AE00040F0B080012B7FF457AFDDE91A21002A96
:104AF0007FF468ADFF2900F2978001236CE50A9AE4
:104B00000B9D022BB261C6F8A8507FF4F5AD0C994D
:104B10000D9A3163C6F8C020EFE5049B059DB36193
:104B2000C6F8A850E8E54FF002091022CDF804902D
:104B3000FFF75ABAB9F1020F3FF441ADDDE91EC0EB
:104B40006045A3D8B9F1030F7FF461AF37E50124C5
:104B5000BD4EC6F85825C6F85C25C6F86025C6F8CF
:104B60006425C6F86825C6F86C25C6F8B044C6F8B2
:104B7000B444C6F8C044C6F8D044C6F8B844C6F831
:104B8000BC44C6F8C444C6F8C844C6F8CC44C6F809
:104B9000D444C6F8D844C6F8DC44FFF7E8BA002B82
:104BA00000F0BD810022FF29C6F8A830B2613FF6AF
:104BB000CEA90220012277E604A91AA848F0EEFD4A
:104BC000002D7FF4F6AB4B4633E603464EF82C2C13
:104BD00009F10109DBE5894580F0D2800A9A4A454E
:104BE00040F21A828A42C0F05A820C98484540F23C
:104BF000FA818842C0F051820DF168090AA90DF1CD
:104C0000700C0DF1100E1EAB0CAA7BE68342C0F0B7
:104C100093800DF1680904A8D0E90001C9E90001F9
:104C2000002D7FF4C7AC5EE00125C6F8A820B56171
:104C300062E5B9F1040F7FF4E1AB53E7B9F1050F79
:104C40003FF4EEAEDDE924929145BFF4E9AE26A92A
:104C500001EBC30CACF1300226A850E9020101338C
:104C600082E803003EE7FF2A3FF6FAA9012127E583
:104C70009A42FFF494AC82423FF48EAC002D7FF454
:104C800070AE1A9D1B99C6F8C0301C9BB56133638A
:104C9000C6F8A810022330E5019A62457FF6DEAC23
:104CA000019A614538BF61464A4528BF4A46CDE969
:104CB0001E12002D7FF4E8AC1A9D1B9B1C991D9AB7
:104CC000B561C6F8A8301E9D1F9B3163C6F8D83069
:104CD000C6F8C0200323B5640FE51AAB83E80300D0
:104CE000002D7FF467AC1A9D1B990123B561C6F8AE
:104CF000A81002E51C9D1B9A0135B9F1020FC6F8F8
:104D0000A850B26109F1FF3300F037811E991D9D53
:104D10000131022BC6F8C010356340F03A811F9A6A
:104D2000FF2A00F233814FF4807104EB87039A6409
:104D3000C3F8D8100323E0E40A990B9A994238BFCC
:104D400019461A910C99824228BF0246994238BFEF
:104D500019460D9B1B92834228BF03461C911D934D
:104D60008CE70598904200F280800DF168090AA84E
:104D7000D0E90001C9E90001002D7FF41BACB2E7C6
:104D80000DF168090AAA0FCA89E80F00002D3FF447
:104D900078AF1D9BE5E5012305920493002D7FF478
:104DA00016AABBE6059201220492FFF718B9B9F1E1
:104DB000040F3FF449ABDDE92225AA421FD3B9F124
:104DC000050F04D0DDE924934B4500F29E814FF09E
:104DD0000409FFF739BB002D7FF448AF9EE6082396
:104DE0004EF82C2C09F10109D1E48142FFF43EACCC
:104DF00099423FF437AC002DCBD11D9B41E7B9F16F
:104E0000050F3FF421ABDDE92405A84234BF4FF084
:104E100006094FF00509FFF717BB0023CDE911E0A4
:104E2000049A059885F001054FF003090295109347
:104E3000139214900DF1540C92E4002327E60246DD
:104E4000FFF7BDBB2B464DE654B70020E145BFF44C
:104E5000E0AE814538BF81468C4528BF8C46CDE900
:104E60001A9C002D7FF4A6AB3DE7914280F034817F
:104E7000934240F234818A4228BF0A46984238BFA2
:104E80001846CDE91A20002D7FF494AB2BE7079844
:104E9000814202D391427FF42CAD914228BF11464A
:104EA000834238BF0346CDE91C130DF1680C04A8FA
:104EB000D0E90001CCE90001002D3FF4E2AE50E55D
:104EC0000598814202D391427FF40CAD8A4228BFFB
:104ED0000A46984238BF1846DDF818C08646614534
:104EE000CDE91A2080F0BA80634500F2DA801CAB6D
:104EF00006A903C983E8030062451D9B80F0A780D3
:104F0000E6457FF6BBAE624528BF6246734538BFB3
:104F10007346CDE91A23002D7FF44CABE3E6FF295D
:104F20003FF6BCAB1A460120BEE41F9AFF2A3FF6AB
:104F300001AF4FF4807507F1120E04EB8E09C9F82A
:104F40001820C9F8A8500423FFF7D7BB1D99FF29E3
:104F50001CD84FF48073B164C6F8D830EAE6239ABF
:104F6000FF2A3DD84FF4807504EB870CCCF89020D5
:104F7000CCF820510623FFF7C0BB1D9DFF2D3FF647
:104F8000BCAB4FF480723563C6F8C0200223FFF734
:104F9000B4BB20981F9907F10C0E04EB8E09013069
:104FA000032BC9F81810C9F8A80000F08880229ACD
:104FB000219D04EB870C501C042BCCF86050CCF8DE
:104FC000F00070D0249B07F118015A1C04EB810EED
:104FD000CEF8A820259A239DFF2ACEF81850C1D9D3
:104FE0000523FFF78ABB0D9B4B4502D848457FF44C
:104FF00003AE484528BF48468B4238BF0B46CDE933
:105000001C030DF168090AA8D0E90001C9E90001F3
:10501000002D3FF436AEA4E40B98484502D84A452B
:105020007FF4E3AD4A4528BF4A46884238BF084668
:10503000DDF830C08646CC45CDE91A201DD98C4517
:1050400029D31CAB0CA903C983E8030054E79A4297
:10505000FFF459AF62457FF411AE51E707988142E2
:1050600002D361457FF443AF8C4528BF8C469842FC
:1050700038BF1846CDE91CC03EE70D98484501D819
:10508000CC45DED1CC4528BFCC46884238BF084647
:10509000CDE91CC030E70D98F4E70D9BA9E70B980C
:1050A000C0E70798E0E7239DFF2D3FF64CAF4FF494
:1050B000807204EB87018D67C1F8082190E7219A7F
:1050C000FF2A7FF636AF35E6219DFF2DEFD93AE76F
:1050D0000798E2E60598F9E68142FFF4CCAE0DF1BF
:1050E00068090DF1280C1CAB04AADCE90001C9E930
:1050F000000192E8030083E80300002D7FF449AE2D
:105100000B46BEE50A9BFEF719BF04239FE54FF04F
:105110000209FFF799B94FF00309FFF795B900BFEE
:1051200070B50024234D4FF6FC702C7216F080FCF5
:1051300040F2FF134FF49A722B821F4B6A81196859
:10514000BC2201F003061E6001260821C3E90762A4
:105150001022C3E90B121949C3E903448A68C3E961
:105160000544C3E912445C601C819C6283F83C40A6
:105170005A62C5E90844E882EC816C72EC746C7583
:1051800016F0FCFEAB7A0E48C3F34002686003EAF7
:105190000600724060F307042E7762F30F2423F0B9
:1051A0007F06C3F3801166F3174461F31F64AC619B
:1051B00070BD00BF20B700200CB40020B0850420D3
:1051C000C405051038B51C4C4FF40042002120697D
:1051D0001A4D48F05FF84FF480320021A06848F083
:1051E00059F8FFF79DFF2EF0B3FD0FF01BFDFBF705
:1051F000D5FB95F84B307BB995F84A0090B995F8F6
:105200004610A9B927F0F2FE20684FF40032BDE83D
:105210003840552148F03EB816F056FB95F84A0044
:105220000028ECD024F03EFD95F846100029E9D086
:10523000FDF75AF9E6E700BF44BD0020B085042021
:1052400010B40324094B19689A7941F4006119607C
:10525000D97902439A71DC6429B10020DC68D864F2
:105260000134DC60D8715DF8044B70470CB4002049
:105270002DE9F8439F4CE369627A0133012AE36127
:105280003ED01BD9961E012E00F205819A4D95F84D
:105290009B7A002F00F0D18095F89A7A002F00F0C9
:1052A000FF80B5F84A98A16A494500F0F980032AC1
:1052B000924E00F066810027B2680BE0904F8E4D51
:1052C0007878002840F0AD8095F89B0A8B4E012736
:1052D000726888B1B5F99C8A90450DDA616A884593
:1052E0000ADD95F89A3A002B00F0CE80B5F84A987E
:1052F000A56A4D4500F0C88062626772BDE8F88318
:105300007E4EDFF80C82206A716898F81420451AE6
:105310007C4F25620AB13B685A1A357D4FF0FF3148
:10532000002D0CBF4FF483754FF49C75A06A3A6052
:105330000130A842C4E9091080F28A806E4D95F8C8
:105340009A2A3AB195F89B1A21B9B5F84A3883429E
:1053500000F04F81B5F86A184A1C824200F0DA80EA
:105360000331814200F0C180012800F0AF800028A5
:1053700004DDB5F86A98814580F24F8197F8DA200C
:105380002AB3B7F8D010B7F8D6C004318BB2634552
:10539000A7F8D0301BD3D8F80CE0D8F824109EF82A
:1053A000FF200131A3EB0C091FFA89F30132634599
:1053B000894602F00F0201F10101F3D201218EF8BA
:1053C000FF20A7F8D030C8F8249088F81410C3073D
:1053D0001BD597F8D80050B1B7F8CC30B7F8D2C089
:1053E000013399B28C45A7F8CC1040F2E48097F8CD
:1053F000D91051B1B7F8CE30B7F8D490013398B284
:105400008145A7F8CE0040F2BF80637A95F89B0AE9
:10541000002B3FF45CAF032B3FF459AF0027B26879
:1054200057E7B5F86A18A36A8B423FF74DAF0FF004
:1054300087FA324E637A7870E8E7032A08BF0127BB
:105440002E4A67720CBF526892686262BDE8F883A8
:1054500000222D482D4D0369A96A03F5005999F8DA
:105460003FC1206801318CF0800EA962224D40F0CE
:10547000100389F83FE1A2626271236085F8462833
:105480000FF086F9A06A5AE7B7684246B845B4BF3C
:105490000227032730E7184D184E95F89B0ABDE701
:1054A000032094F806C02668E1794CF0010346F425
:1054B0000067A3712760E06400293FF4F8AE002084
:1054C000E368E0640133E360E071F0E604200E4B32
:1054D00021681A6902F5804E8EF8100221F08000D2
:1054E00020601AF0BDFCA06A41E727F053FFA06AD4
:1054F0003AE700BF0CB40020CCBD0020B0850420EA
:1055000054B70020F8B2002044BD002020B700208E
:10551000E4B600201DF00CFB0020434B43491B69FF
:10552000487003F5005999F80021D009D20985F88F
:10553000710818D1B5F868C895F84228A5F844C88C
:105540000AB1CCF3460295F847E85FEACE7003D47F
:1055500095F84092914503D0012085F8402288704B
:10556000002185F847184FF0840C03F5804393F928
:10557000002283F810C2002A32DBA06AB5F86A184C
:10558000EEE601277268A5E600224FF0010CD8F87C
:105590000C10A7F8CE2091F8FE00D8F824706044D3
:1055A0000137C8F8247088F814C000F00F08637A37
:1055B00081F8FE802AE700220120D8F80C10A7F815
:1055C000CC2091F8FD20D8F82430013288F814005E
:1055D000013302F00F00C8F8243081F8FD0006E71F
:1055E00001202168226C41F0800360712360A26475
:1055F000C3E70322A379E26443F002022368A271A5
:1056000043F40062E3792260002B3FF4A3AEE1642F
:10561000E171E1680131E1609CE6431ED8B21BF004
:1056200099FAA06AAAE600BF44BD002054B7002042
:105630002DE9F0415C4E5D4C5D4F5E4DDFF87881A9
:1056400040E02368002B2BD01A060FD5A26C501E09
:10565000A06458B9E17923F08003236019B1E268AE
:10566000E0710132E2600DF091F92368180515D55B
:10567000E06C002834D1E17919B1E268E0710132BF
:10568000E260A07900286DD098F81010002969D147
:1056900097F80AC05FEA4C7140F18180D8062CD49B
:1056A000E368226AE16A581C0A442262E06063618E
:1056B0007A6893F800E052F82E309847D4E9081041
:1056C000814253DA337D002BBBD02A68206A8242A4
:1056D000B7DC2AF0ABF92968236A9942F9DDB0E713
:1056E000411EE1640029D9D197F80AC05FEA4C72E3
:1056F00044BF0122E264D806D2D57D7E97F81A8095
:10570000B5FA85F0FA7E3D7E28F07F0C4CEA8212D5
:1057100097F80A802A43400908F03C0542EA400213
:10572000E16820692A433579091ABA72F98205F0CD
:105730003C023768F56896F82810781B3271708142
:1057400011B142F00102327196F8297096F82A5090
:10575000BFB975B942F00200307123F0100626601F
:10576000BDE8F08123F40063236097E7FFF780FD35
:10577000A8E742F04201317123F010062660BDE82F
:10578000F08115B142F040023271390644BF62F037
:105790007F02327123F010062660BDE8F0810DF023
:1057A00039F823687AE700BFE4B600200CB4002083
:1057B00020B70020F8B20020B08504204FF0000C84
:1057C00030B40A4A0A49D0680B7B441CD46005787F
:1057D000146A2B40D06A63F3070C204463F30F2C48
:1057E0000B731062A1F819C030BC70470CB40020D4
:1057F00020B7002010B40B4A0B49D4688B8934F8C9
:10580000020B0340D4601C1E18BF01248B811B0AAD
:10581000106A8B76136B4C76184410625DF8044B5B
:10582000704700BF0CB4002020B7002010B4084B14
:10583000084C197B206A4A00D2B20630C90920629E
:1058400019761A735A769A765DF8044B704700BF42
:1058500020B700200CB4002010B40E4A4FF0000115
:1058600093890D4C580083B2B3F1000C18BF4FF070
:10587000010C206A06302062547B9381E00960F3BA
:1058800007011B0A6CF30F21937611835DF8044B1B
:10589000704700BF20B700200CB4002010B4094BA3
:1058A0000948D96890F80CC04C1CDC600C781A6A66
:1058B0000CEA04014176D86A02441A625DF8044B8E
:1058C000704700BF0CB4002020B7002010B4094A74
:1058D000094CD068A38930F8021B0B40003B18BF6D
:1058E0000123116AD060106B6376014411625DF888
:1058F000044B70470CB4002020B7002010B40B4AB2
:105900000B49D0680B7B441CD46000788342B4BF41
:10591000002401241B1ADBB2106A4B768B76D36A03
:105920000C76184410625DF8044B70470CB40020EC
:1059300020B7002010B4114A114CD368A18933F864
:1059400002CB106A6145D360A1EB0C03B4BF002108
:1059500001214FF0000C9BB261F3070C191E18BF18
:10596000012161F30F2C116B1B0A0844A376A4F8E4
:1059700018C010625DF8044B704700BF0CB40020E3
:1059800020B7002010B40B4A0B49D0688B7C441C14
:10599000D46000788342B4BF002401241B1ADBB218
:1059A000106A4B768B76D36A0C76184410625DF8D9
:1059B000044B70470CB4002020B7002010B4114AEB
:1059C000114CD368618A33F802CB106A6145D36009
:1059D000A1EB0C03B4BF002101214FF0000C9BB2DE
:1059E00061F3070C191E18BF012161F30F2C116B15
:1059F0001B0A0844A376A4F818C010625DF8044B93
:105A0000704700BF0CB4002020B7002010B40B4A30
:105A10000B49D0680B7D441CD46000788342B4BF2E
:105A2000002401241B1ADBB2106A4B768B76D36AF2
:105A30000C76184410625DF8044B70470CB40020DB
:105A400020B7002010B4114A114CD368A18A33F852
:105A500002CB106A6145D360A1EB0C03B4BF0021F7
:105A600001214FF0000C9BB261F3070C191E18BF07
:105A7000012161F30F2C116B1B0A0844A376A4F8D3
:105A800018C010625DF8044B704700BF0CB40020D2
:105A900020B70020002210B40A490B480B7B046A8F
:105AA00003F1FF3C5FFA8CF3826163F30702063473
:105AB00063F30F2204620B73A1F819205DF8044B05
:105AC000704700BF20B700200CB4002010B40024A1
:105AD000094A0A4993898C61581E83B2086A9381E6
